:100000000C94F1020C940E030C940E030C940E034A
:100010000C940E030C940E030C940E030C940E031C
:100020000C940E030C940E030C946D110C94291176
:100030000C94D81F0C940E030C940E030C940E0316
:100040000C940E030C940E030C940E030C940E03EC
:100050000C940E030C9448120C940E030C940E0393
:100060000C940E030C940E030C940E030C940E03CC
:100070000C940E030C940E030C940E030C940E03BC
:100080000C940E030C940E030C940E030C940E03AC
:100090000C940E030C940E030C940E030C940E039C
:1000A0000C940E030C940E030C940E03000000003D
:1000B0000000000000000000000000000000000040
:1000C0007E0F00D4FFFFFFC7000000780000000093
:1000D000000000002A2B28000000000000000000A3
:1000E0000000000000000029000000002C1E342049
:1000F000212224342627252E362D3738271E1F206F
:100100002122232425263333362E37381F040506B3
:100110000708090A0B0C0D0E0F10111213141516F7
:100120001718191A1B1C1D2F3130232D35040506F5
:100130000708090A0B0C0D0E0F10111213141516D7
:100140001718191A1B1C1D2F3130354C29002B0094
:100150003900E100010000002100140004621D00CC
:1001600001004D0020001A0015641B00010028004A
:100170001F0009001661060003582A421E001300E2
:100180001768070001584A00270005000A6F190088
:10019000000001003500350200002A0000000100C7
:1001A0002D002D0200002C000000010022000D0097
:1001B00010670E000000010023000F0011780B00F3
:1001C00050004B00240018000871360051002C002C
:1001D00025001C000C743700520028002600330054
:1001E000127238004F004E00010031003400E5006B
:1001F0000151000029000100010001000100000080
:100200003E001E0220022202010001003D001F02EA
:1002100021022302010001003C002F0226022F00D0
:10022000105001003B003002270230001050010046
:100230003A003102240235020000010001000100F1
:1002400000000100000001000100010000000100A9
:10025000000001003F0057002E0056000000010082
:100260004000240021001E0027000100410025005D
:1002700022001F0001000100420026002300200090
:1002800063000100430055006300540001000100B9
:10029000440045006300010001000000010001006E
:1002A000010001000100000001000C5D1D080F5D50
:1002B00001000100010001001B08105D01000100A8
:1002C00001000D5D0608115D010001000100010043
:1002D0001908125D01000100010001000E5D135DAF
:1002E0000000010001000100000001000000010009
:1002F00001000100000001000000010001000100F8
:1003000001000100000001000100010001000100E6
:1003100001000100010001000100010001000100D5
:1003200001000100010001000100010001000100C5
:100330000100010001000100005C0100010001005A
:10034000085D00000102E301012C0103E30001024A
:10035000E001014F0103E0000102E001015101034E
:10036000E0000102E00101520103E0000102E001AE
:1003700001500103E0000102E301010A0103E3006F
:100380000102E30101090103E3000102E30102E1CB
:1003900001011D0103E10103E3000A000000000068
:1003A0000306B200080001000000A80008000200D7
:1003B0000200A0001400030057494E5553420000AC
:1003C00000000000000000008400040007002A0074
:1003D00044006500760069006300650049006E0016
:1003E00074006500720066006100630065004700EC
:1003F0005500490044007300000050007B003900A4
:1004000044004200370046003100460044002D0001
:1004100037004500370041002D0034003000300027
:1004200038002D0039003300360042002D00360020
:1004300042004100360043003100390041003300E2
:100440003000380063007D00000000001B030163E2
:100450006F6E6669677572652E6572676F646F7817
:100460002D657A2E636F6D0005010980A10185035A
:100470001A81002A830016010026030095017510D9
:100480008100C0050C0901A10185041A01002A9C04
:1004900002160100269C02950175108100C005011D
:1004A0000906A1018505050719E029E715002501C1
:1004B0009508750181020507190029EF150025012E
:1004C00095F0750181020508190129059505750149
:1004D0009102950175039101C005010906A101056D
:1004E0000719E029E7150025019508750181029596
:1004F00001750881010507190029FF150026FF0075
:1005000095067508810005081901290595057501ED
:100510009102950175039101C00902520003010087
:10052000A0FA0904000001030101000921110100E2
:10053000012240000705810308000A0904010001A7
:10054000030000000921110100012271000705824A
:100550000320000A0904020002FF000000070583CF
:1005600003400005070504034000051201100200C6
:10057000000008EDFE07130100010203010403302F
:1005800000000016034500720067006F0064006FF2
:10059000007800200045005A00000008035A00536C
:1005A000004100000004030904050F3900021C107B
:1005B0000500DF60DDD88945C74C9CD2659D9E64EF
:1005C0008A9F00000306B20045001810050038B6E7
:1005D0000834A909A0478BFDA0768815B6650001EF
:1005E000420011241FBECFEFDAE0DEBFCDBF11E025
:1005F000A0E0B1E0E4EFF4E402C005900D92A83F62
:10060000B107D9F723E0A8EFB1E001C01D92A932EC
:10061000B207E1F70E94501D0C9445220C94000093
:10062000E8EDF0E080818E7F80831092E2001092EE
:10063000DA001092E100A0EEB0E08C9181608C9322
:1006400080818F77808319BCA7EDB0E08C918E7F7D
:100650008C9380818F7E80831092F6020895209182
:10066000E4003091E50095E6A9012091EC00822F8D
:10067000817020FF06C08091E80080FF06C080E006
:1006800008952091E80022FD1AC080911B03882361
:1006900089F0853089F08091EB0085FD0FC02091B5
:1006A000E4003091E50042175307F9F29150E1F66A
:1006B00084E0089582E0089583E0089581E008953C
:1006C000EF92FF920F931F93CF937C018B010E94B7
:1006D0002F03C82F882371F08C2FCF911F910F917A
:1006E000FF90EF900895F70181917F018093F100D1
:1006F000015011090115110579F38091E80085FD7C
:10070000F2CF8091E8008E778093E8000E942F035B
:10071000882381F3C82FE0CF80911D0387FF13C08A
:100720008091E80082FF06C08091E8008B7780937B
:10073000E80004C080911B038111F2CF08958091DD
:100740001B038823D9F38091E80080FFF8CF8091C4
:10075000E8008E77ECCF982F9093E900242F762F26
:1007600050E0891731F07091EC002091ED0050912C
:10077000F00021FD07C09F5F973071F78093E9007B
:1007800081E008953091EB003E7F3093EB00309193
:10079000ED003D7F3093ED003091EB003160309300
:1007A000EB007093EC002093ED005093F00020914B
:1007B000EE0027FDE0CF80E00895CF92DF92EF9228
:1007C000FF920F931F93CF93DF93C8EDD0E0888102
:1007D0008F7E8883E7EDF0E080818160808384E014
:1007E00082BF81E08093F60288818E7F888302EE4B
:1007F00010E0F80110821092DA0081EEC82ED12CA0
:10080000F601108288818F77888388818068888349
:1008100088818F7D888319BC10921B0310921C0362
:1008200010921A031092190390EEE92EF12CF701A1
:1008300080818B7F808388818160888342E060E053
:1008400080E00E94AB03F60180818E7F8083F801F7
:10085000808181608083808188608083F7018081CE
:100860008E7F8083888180618883DF91CF911F9103
:100870000F91FF90EF90DF90CF900895FC01809151
:1008800023039091240386179707A0F06115710543
:1008900029F48091E8008E778093E80090E061155C
:1008A000710551F4911108C08091E80082FF35C0B4
:1008B00080E00895BC01F2CF80911B038823C9F129
:1008C0008530C9F18091E80083FD31C08091E80056
:1008D00082FDEACF8091E80080FFE1CF8091F300B4
:1008E0002091F200382F6115710519F0283031057B
:1008F00058F091E02830310509F090E08091E8004F
:100900008E778093E800CBCF84918093F10031966D
:10091000615071092F5F3F4FE6CF80911B03882301
:1009200041F0853041F08091E80083FFBDCF81E048
:10093000089582E0089583E00895FC0180912303E7
:100940009091240386179707A0F06115710529F48B
:100950009091E8009E779093E80090E06115710512
:1009600051F4911108C08091E80082FF34C080E00A
:100970000895BC01F2CF80911B038823C1F185301B
:10098000C1F18091E80083FD30C08091E80082FDD4
:10099000EACF8091E80080FFE1CF8091F3002091C1
:1009A000F200382F6115710519F02830310558F023
:1009B00091E02830310509F090E02091E8002E7791
:1009C0002093E800CBCF81918093F10061507109B1
:1009D0002F5F3F4FE7CF80911B03882341F0853085
:1009E00041F08091E80083FFBECF81E0089582E06E
:1009F000089583E0089508958091F8020895209164
:100A00001B03243099F423E02093E90070E050E0C8
:100A100040E00E946003882321F01092F4021092BB
:100A2000F5028091E8008E778093E8000895CF92D8
:100A3000DF92EF92FF926C01EE24FF2420E0C114BC
:100A4000D104E104F10419F0C701B60120E1C72E79
:100A5000D82EE92EFF24C114D104E104F10419F0C9
:100A6000285FC701B6016B017C0154E0F694E7945E
:100A7000D794C7945A95D1F7C114D104E104F10475
:100A800019F02C5FC701B6016B017C0142E0F694BE
:100A9000E794D794C7944A95D1F7C114D104E104DF
:100AA000F10419F02E5FC701B601969587957795E9
:100AB0006795672B682B692B09F02F5F822FFF90BA
:100AC000EF90DF90CF9008958091AB02811110924A
:100AD000AB0208958091AA029091A902892B90916E
:100AE000A802892B8093F8019091AB029923A1F081
:100AF000892B8093F80180911201882341F1809124
:100B0000CC0287FF24C08EE1EAEFF1E090E0815053
:100B100000F591110E946405E091CE02F091CF02A0
:100B20003097E1F080911201882359F08091CC0236
:100B300087FF07C08091F8018093F90185E08093D9
:100B4000F8010280F381E02D88EF91E0099486E0BE
:100B5000DBCF21912223D9F29F5FD9CF08959091C5
:100B600012019923D1F09091CC0297FF16C0E82F83
:100B7000E695E695E695EE31E0F4F0E0E850FE4FBC
:100B8000282F277081E090E001C0880F2A95EAF7AE
:100B900080959281892382830895EAEFF1E0919113
:100BA000891303C0DF0111971C9292E0E030F9072E
:100BB000B1F70895909112019923C1F09091CC0260
:100BC00097FF14C0E82FE695E695E695EE31F8F428
:100BD000F0E0E850FE4F877021E030E001C0220FC6
:100BE0008A95EAF78281822B82830895AAEFB1E089
:100BF000EFEF90E02D91821751F0EF3F19F42111A2
:100C000001C0E92F9F5F9630A9F7EF3F09F40895DF
:100C10000E2E000CFF0BE850FE4FE6CFE92FEE0F33
:100C2000E90FEE0F8E0F982F977086958695869513
:100C300025E0829FF0011124E059FD4F50E040E093
:100C400080E0219130E0092E02C0369527950A9464
:100C5000E2F721703327042E01C0220F0A94EAF72D
:100C6000822B4F5F5F4F4530510559F70895E92FAB
:100C7000EE0FE90FEE0F8E0F982F977041E001C035
:100C8000440F9A95EAF786958695869595E0899F13
:100C9000F0011124E059FD4F30E020E070E0519167
:100CA000DF011197CB01022E02C0969587950A9419
:100CB000E2F7817081958527842385278C932F5FA8
:100CC0003F4F2530310559F7089580916F0290917B
:100CD0003E02981301C008958F5F8770FACF882372
:100CE00041F080959091A90289238093A9020C94E8
:100CF0006A050895882339F09091A902982B909362
:100D0000A9020C946A050895882341F0809590917A
:100D1000AA0289238093AA020C946A050895882365
:100D200039F09091AA02982B9093AA020C946A052C
:100D3000089520912302309124022817390771F079
:100D40009093240280932302E091CE02F091CF028F
:100D5000309721F00084F185E02D099408952091C9
:100D60002102309122022817390771F09093220254
:100D700080932102E091CE02F091CF02309721F0D2
:100D80000680F781E02D099408951092A90210922F
:100D9000A8020E946A0590E080E00E94AF0690E001
:100DA00080E00C9499066093AC027093AD0280933E
:100DB000AE029093AF020C94C506E091CE02F09182
:100DC000CF02309721F00190F081E02D099480E06E
:100DD0000895882309F452C0823871F40E94DD0618
:100DE00081FF4CC089E30E94DA050E946A0589E30D
:100DF0000E94AF050C946A05833859F40E94DD0601
:100E000080FF3CC083E50E94DA050E946A0583E505
:100E1000EFCF843859F40E94DD0682FF2FC087E4AB
:100E20000E94DA050E946A0587E4E2CF9CEF980FE2
:100E3000913AF0F290E2980F983088F4877021E0B0
:100E400030E0A90102C0440F551F8A95E2F7CA019C
:100E500080959091AA0289238093AA02CBCF9BE52B
:100E6000980F933020F490E080E00C94AF06885AFD
:100E7000873120F490E080E00C94990608959091D9
:100E8000CC0292FF06C0282F28712830F9F4877F02
:100E9000846093FF06C0282F28712831F1F4877EE3
:100EA00084612091CD0220FF06C0382F3871383080
:100EB000D9F4877F816021FF06C0282F287128314F
:100EC000D1F4877E816194FD877E0895282F247157
:100ED0002430F9F68B7F8860DCCF282F24712431F1
:100EE00001F78B7E8861DDCF382F3171313019F7F2
:100EF0008E7F8860E0CF282F2171213121F78E7EEF
:100F00008861E1CFCF93DF93972F70E026E0929F27
:100F1000600D711D1124FB0134E5839FE00DF11D6F
:100F20001124EE0FFF1FE45BFE4FC591D491CE015B
:100F3000C238D105B9F1E8F5C133D10509F499C03A
:100F400050F5C932D10509F48DC0CA32D10509F472
:100F500097C0C11542E5D40708F0B6C0C11521E518
:100F6000D20708F02EC1C83ED10508F09DC0C03E92
:100F7000D10568F5C83AD10508F089C0C53AD10550
:100F800008F0F7C0C130D10511F1209709F443C032
:100F90002497E8F440C0C533D10509F45CC0C933D7
:100FA000D105B9F62091CC02237089F080EE90E053
:100FB0000EC0C33ED10591F168F4C03ED105F9F0F1
:100FC000C23ED10531F62091CC0222FD20C0DF9136
:100FD000CF910895C63ED10561F1C73ED10581F19B
:100FE000C43ED10509F0B5CF2091CD0221FFEFCF4E
:100FF0008091CC0284FD0FC087EE90E0E8CF209175
:10100000CC0220FD0EC13091CD0230FFE0CF83EE47
:1010100090E024FFDCCF90E080E0D9CF2091CC029B
:1010200022FD02C13091CD0230FDC0CF24FFCFCFD1
:10103000F2CF2091CC0223FFCACF24FDECCFDCCF2E
:101040002091CC0223FDF3C03091CD0231FFEECFD1
:1010500084EE90E0BCCF2091CC0225FFB8CF89E28E
:1010600090E0B5CF2091CC0225FFB1CF85E390E091
:10107000AECF2091CC0226FFAACF8AE290E0A7CF84
:101080002091CC0226FFA3CF81E390E0A0CFCF3BFD
:10109000D10508F6C85AD0E0CC0FDD1FC653DE4F8D
:1010A00088819981946493CFC11530E5D30708F006
:1010B0006CC0C11540E4D40708F063C0DA95C115CF
:1010C000DF4108F484CFA7CFC11536E5D30718F563
:1010D000C11545E5D40708F08AC0C11584E5D807D5
:1010E00008F080C09C2F96959695AE0143705527C9
:1010F000C115D34508F46AC021E030E002C0220FD8
:10110000331F4A95E2F740E2949FC0011124822BDD
:10111000932B9A685CCFC1153AE5D30778F4C115D3
:1011200049E5D40708F06DC0C11588E5D80708F473
:1011300072CF9C2F8827806F906A49CFC1159BE59D
:10114000D90708F468CFCE01C1152CE5D20708F401
:1011500065C090568115904208F05DCF8D2F8F713C
:101160000E943F0790E0982F882788279F718C2B3B
:1011700046C0C55AD0E0C953DE4F888190E09064E4
:1011800026CFCE019F70906A22CF9E01E4E0369573
:101190002795EA95E1F723708C2F869586958370C5
:1011A00040E2849FC0011124922BC37021E030E003
:1011B00002C0220F331FCA95E2F7822B932B9C6843
:1011C00006CF9C2F8827816F906A01CF21E030E005
:1011D00002C0220F331F4A95E2F740E2949FC001FC
:1011E0001124EBCF9C2F8827846F906AF0CE8C2F30
:1011F0000E943F0790E0982F882788279F71906270
:10120000E6CE8C2F8F700E943F0734E0D695C795AD
:101210003A95E1F7CF709C2F9069D9CE99279066C7
:10122000D6CE89E390E0D3CE82EE90E0D0CE86EEAB
:1012300090E0CDCEBF92CF92DF92EF92FF920F93CC
:101240001F93CF93DF938C01C090EF02D090F002F8
:10125000E090F102F090F2028091AC029091AD0228
:10126000A091AE02B091AF02C82AD92AEA2AFB2A7D
:10127000CFE1D0E0BC2ED701C6010C2E04C0B6953C
:10128000A795979587950A94D2F780FD0EC0219770
:1012900088F7B12C8B2DDF91CF911F910F91FF908B
:1012A000EF90DF90CF90BF900895B8018C2F0E94EF
:1012B0008207019761F3EECFCF93DF93EC010E9499
:1012C0001A09BE01DF91CF910C9482070E945C093C
:1012D000292F2F7092959F7092509E3078F4E92FAD
:1012E000F0E0E95BFD4D0C94CC20803F19F020F438
:1012F000883E20F481E00895843FE1F380E0089582
:10130000883EC0F3813FD1F7F5CF822F8695869531
:101310008695089527982F98089526982E980895D1
:1013200025982D98089556985E980895279A2F9A93
:101330000895269A2E9A0895259A2D9A0895CF9267
:10134000DF92EF92FF92CF936B017C010E94170511
:10135000C82F0E9493090E9490090E948D090E9443
:101360008A09C150C73040F4EC2FF0E0EB5AFD4D34
:101370000C94CC200E949C09C701B601CF91FF902C
:10138000EF90DF90CF9008950E949C090E949909E8
:10139000F3CF0E949C090E949609EECF0E949C09FF
:1013A0000E949909F8CFCF92DF92EF92FF92CF93EC
:1013B000DF9300D000D0CDB7DEB70E949F096B014C
:1013C0007C018091F302882321F08091F402811145
:1013D00015C0C092EF02D092F002E092F102F092BA
:1013E000F2020E94C5060F900F900F900F90DF91B0
:1013F000CF91FF90EF90DF90CF900895198282E017
:101400008A83C701B6010E9417058B838EEF8C83F8
:1014100064E0CE0101960E94FF04DBCF0F931F937F
:1014200041E050E060E070E004C0440F551F661FCB
:10143000771F8A95D2F7CB01BA0160957095809598
:1014400090950091EF021091F0022091F1023091FD
:10145000F20260237123822393231F910F910C9436
:10146000D3099091A702809589238093A702282F02
:10147000277071F4282F082E000C330B92171306D7
:1014800039F08595859585950E940E0A1092A702E0
:1014900008950F931F9341E050E060E070E004C0B6
:1014A000440F551F661F771F8A95D2F78091EF0270
:1014B0009091F002A091F102B091F2028A019B0199
:1014C000082B192B2A2B3B2BC901B8011F910F9117
:1014D0000C94D30984B1807F84B985B1807F85B9AC
:1014E0008AB1837F8AB98BB1837F8BB93E98469846
:1014F000089580B38C7080BB81B3836F81BB0895E6
:10150000CF9384E090E00E94D220C82F81E290E047
:101510000E94D220982F8C2FCF910895CF93DF93E4
:1015200000D00F92CDB7DEB790911B03943019F520
:1015300089837B836A8382E08093E9008FEF9091B7
:10154000E800815095FD06C095ED9A95F1F70000F1
:101550008111F5CF8091E80085FF0DC050E040E09B
:1015600063E070E0CE0101960E9460038091E80084
:101570008E778093E8000F900F900F90DF91CF91BE
:10158000089520911B03243021F4BC0184E00C94C5
:101590008E0A0895BC016058710983E00C948E0A8C
:1015A000CF93DF93EC0180911B038430B9F58091D8
:1015B00012018823B1F18091CC0287FF32C060E232
:1015C00082E08093E9008FEF9091E800815095FDD3
:1015D00006C095ED9A95F1F700008111F5CF809145
:1015E000E80085FF1BC08091120170E050E040E0F0
:1015F000811104C050E040E068E070E0CE010E943C
:1016000060038091E8008E778093E80080E2FE011D
:10161000A9EFB2E001900D928A95E1F7DF91CF91A9
:10162000089568E081E0CDCF882309F475C0823841
:10163000B9F40E94DD0681FD6FC089E30E94DA05DE
:101640000E946A052FEF81EE94E021508040904087
:10165000E1F700C0000089E30E94AF050C946A0521
:101660008338A1F40E94DD0680FD56C083E50E9408
:10167000DA050E946A052FEF81EE94E02150804048
:101680009040E1F700C0000083E5E6CF8438A1F484
:101690000E94DD0682FD40C087E40E94DA050E94B8
:1016A0006A052FEF81EE94E0215080409040E1F7F1
:1016B00000C0000087E4D0CF9CEF980F913A18F457
:1016C0000E94DA05CBCF90E2980F983068F48770CB
:1016D00021E030E001C0220F8A95EAF78091AA024A
:1016E000822B8093AA02BACFEBE5E80FE33038F4FF
:1016F000F0E0E953FE4F808190E00C94AF06885AE9
:10170000873150F4E82FF0E0EE0FFF1FE653FE4F55
:10171000808191810C9499060895CF93C82F0E94DF
:10172000140BC93349F42FEF87EE93E0215080402A
:101730009040E1F700C000008C2FCF910C94E90697
:10174000CF92DF92EF92FF920F931F93CF93DF938D
:10175000EC018AE0C82EFE018491882309F483C03D
:10176000813009F040C031968491813051F4229645
:10177000FE011491812F0E94140B812F0E94E90613
:1017800007C0823039F42296FE0184910E94140B26
:101790002196E1CF833021F42296FE018491EECF91
:1017A000843009F05EC02296FE01249190E080E032
:1017B000FE0131962053330B2A30310548F0019752
:1017C00038F3EFE9FFE03197F1F700C00000F7CF01
:1017D000C89EA001C99E500D1124C901840F951FF8
:1017E0002491EF01E5CFE82FF0E0E453FF4FD490D0
:1017F000082F06950695069510E0F801E454FF4F72
:10180000E4908770F12C082E02C0F594E7940A94B6
:10181000E2F721E0E222FF2404551F4FF801049172
:1018200010E002C0159507958A95E2F7017011271F
:10183000E114F10419F081EE0E94140B0115110559
:1018400019F086EE0E94140B8D2D0E948D0B012B3A
:1018500019F086EE0E94E90681EEEF2809F498CF90
:101860008DCFEF0195CFDF91CF911F910F91FF9019
:10187000EF90DF90CF900895EF92FF920F931F9318
:10188000CF93DF930E9493090E9490090E948D09D3
:101890000E948A0988E8E82EF12C8FEF90E0F7018A
:1018A000918380830AE810E0F80191838083CCE87B
:1018B000D0E0998388830E949C09FFEF20E782E0B3
:1018C000F15020408040E1F700C000000E949909DB
:1018D0009FEFE0E7F2E09150E040F040E1F700C018
:1018E00000000E9496092FEF80E792E0215080408F
:1018F0009040E1F700C000000E949009EFEFF0E790
:1019000022E0E150F0402040E1F700C000000E94DA
:101910008D098FEF90E7E2E081509040E040E1F7E1
:1019200000C000000E948A098091BA028770FFEF10
:101930008F9FC00111249595879595958795992737
:10194000F70191838083F801918380839983888351
:101950000E9493090E9490090E948D09DF91CF9106
:101960001F910F91FF90EF900C948A096091B6023D
:101970008CE090E00C94E6206FEE7EEF90E080E04B
:101980000E94042160E082E090E00E94E62060E096
:1019900083E090E00E94E6201092AC021092AD022B
:1019A0001092AE021092AF0260E084E090E00E94DC
:1019B000E62060E081E290E00E94E62060E085E0C1
:1019C00090E00E94E62060E086E090E00E94E62041
:1019D0006FEF87E090E00E94E62040E050E0BA011F
:1019E00088E090E00E94F82060E08DE090E00E94A6
:1019F000E62040E050E0BA0188E190E00E94F82043
:101A000060E087E190E00E94E62040E050E0BA010B
:101A10008CE190E00E94F82060E080E290E00E947B
:101A2000E6201092BA021092BB021092BC021092F1
:101A3000BD0284E080618093BA024091BA02509165
:101A4000BB026091BC027091BD028FE090E00E94E9
:101A5000F82040E050E0BA0183E190E00C94F820D7
:101A60001092AA0280911201EAEFF1E0882359F066
:101A70008091CC0287FF07C08EE1DF011D928A951D
:101A8000E9F70C94C50686E0F8CF1F93CF93DF9358
:101A9000CDB7DEB7AA970FB6F894DEBF0FBECDBFA5
:101AA0008DE193E02091F100FC012193CF01F3E05F
:101AB00085329F07B9F780911E03893009F444C02D
:101AC00018F5823009F4B7C0833009F46CC0813056
:101AD00031F580911D03813A11F58091E800877FEF
:101AE0008093E8008091210390912203892B41F596
:101AF00060E289EF92E070E00E949D048091E8002E
:101B00008B778093E8000BC08B3009F469C008F430
:101B100081C0823409F4A0C0853409F4BAC0809130
:101B2000E80083FF65C280911D0390911E039A30E7
:101B300008F05EC2E92FF0E0E45AFD4D0C94CC2091
:101B400060E090E080E0D7CF80911D03813239F7CB
:101B50008091210390912203029708F78091E80079
:101B6000877F8093E8008091E80082FF17C0909102
:101B7000F3008091F200029729F48091F1008B7FAD
:101B8000813021F48091F1008093F8028091E80087
:101B90008B778093E8000E948C03C1CF80911B0358
:101BA0008111E1CFBCCF80911D03813A09F0B7CFFD
:101BB0008091210390912203892B09F0B0CF80916D
:101BC000E800877F8093E8008091E80080FFFCCFE9
:101BD000809112018093F1008091E8008E77D9CF37
:101BE00080911D03813209F09ACF80912103909159
:101BF0002203892B09F093CF8091E800877F80939F
:101C0000E8000E948C0380911F03809312010E94C0
:101C1000300D85CF80911D03813209F080CF8091F6
:101C2000E800877F8093E8000E948C038091200366
:101C30008093F70274CF80911D03813A09F06FCF32
:101C40008091E800877F8093E8008091E80080FF22
:101C5000FCCF8091F702BECF80911D03803C09F03C
:101C60005ECF8091210390912203029739F58091F4
:101C70001F0390912003892B09F58091E800877F4D
:101C80008093E8006BE170E08CE494E00E943E04F5
:101C900082CF80911D03803C09F041CF80912103C8
:101CA00090912203079751F48091E800877F8093F9
:101CB000E80062EB70E08AE993E0E8CF8091EB0006
:101CC00080628093EB002BCF803899F0823809F046
:101CD0008FC1809121038F70873008F089C1809374
:101CE000E9008091EB0085FB882780F91092E900DC
:101CF00006C08091190390911A039111826090910E
:101D0000E800977F9093E8008093F1001092F10033
:101D10008091E8008E7768C1882309F456C182302B
:101D200009F066C180911F03811159C1809121037F
:101D30008F702FEF280F263008F05AC18093E900EA
:101D40002091EB0020FF4BC1933031F48091EB00E8
:101D500080628093EB0043C19091EB00906190937F
:101D6000EB0021E030E001C0220F8A95EAF72093D2
:101D7000EA001092EA008091EB008860EACF8111BE
:101D800037C110911F031F778091E3008078812B6A
:101D90008093E3008091E800877F8093E8000E94B1
:101DA0008C038091E80080FFFCCF8091E300806885
:101DB0008093E30082E0111183E080931B0318C13C
:101DC0008058823008F014C180911F039091200345
:101DD0008C3D23E09207A1F583E08A838AE2898320
:101DE0004FB7F894DE01139620E03EE051E2E32F76
:101DF000F0E050935700E49120FF03C0E295EF70AC
:101E00003F5FEF708E2F90E0EA30C0F0C7968D9361
:101E10009D932F5F243159F74FBF8091E800877F52
:101E20008093E8006AE270E0CE0101960E949D0472
:101E30008091E8008B778093E800DAC0C096E7CF06
:101E40004091210350912203292F3327233031055C
:101E500069F1A0F42130310509F46CC062E570E04D
:101E600089E195E02230310509F0C2C02091E800F7
:101E7000277F2093E8000E943E04DACF213231050B
:101E800009F440C02232310509F448C02F30310531
:101E900009F0AEC0EBEAF5E0E4916E2F70E089EA5C
:101EA00095E06115710509F4A3C0E0CF9927813051
:101EB0009105C1F0009771F082309105D9F0039738
:101EC00009F096C0EDE7F5E0E4916E2F70E08DE744
:101ED00095E0E7CFE5EAF5E0E4916E2F70E085EA62
:101EE00095E0DFCFEBE9F5E0E4916E2F70E08BE950
:101EF00095E0D7CFE3E8F5E0E4916E2F70E083E85A
:101F000095E0CFCF41155105D1F04130510509F091
:101F10006FC069E070E084E495E0A8CF41155105F9
:101F200099F04130510509F063C061E770E088E63F
:101F300094E09CCF62E170E08BE695E097CF69E09A
:101F400070E08BE295E092CF60E470E089ED94E080
:101F50008DCF803809F04CC08091E800877F809356
:101F6000E80080911C038093F100D2CE811140C023
:101F700010911F031230E0F58091E800877F809375
:101F8000E80010931C030E948C03112311F084E0DD
:101F900005C08091E30087FDFACF81E080931B03A9
:101FA00042E061EC81E00E94AB0342E261EC82E03E
:101FB0000E94AB0342E361EC83E00E94AB0342E387
:101FC00060EC84E00E94AB0313C080911F0381305A
:101FD00079F481E0933009F080E080931A03109245
:101FE000E9008091E800877F8093E8000E948C03DD
:101FF0008091E80083FF0AC08091E800877F80938A
:10200000E8008091EB0080628093EB00AA960FB607
:10201000F894DEBF0FBECDBFDF91CF911F91089521
:10202000CF93C82F873070F58091060190910701FA
:10203000892B89F564E670E080E40E940520909386
:10204000070180930601892BD1F464E670E082E1F8
:102050000E9461209093070180930601892B79F4F7
:1020600081E090E001C0880FCA95EAF764E670E06D
:1020700080950E9461209093070180930601CF9183
:102080000C94B4208A30B9F040F4883071F0893073
:1020900079F0209A2898CF9108958C3091F070F0C3
:1020A0008D30B9F73E9A4698F6CF219A2998F3CF0A
:1020B000229A2A98F0CF239A2B98EDCF529A5A98C9
:1020C000EACF539A5B98E7CF80E290E090930701C4
:1020D0008093060180911E0281110EC00E94FF1F95
:1020E00081E080931E022FEF83ED90E3215080402A
:1020F0009040E1F700C0000064E670E080E40E94D8
:1021000005209093070180930601892B09F04EC0AA
:1021100064E670E080E00E94612090930701809364
:102120000601892B09F042C064E670E080E00E945D
:1021300061209093070180930601892BB9F564E62D
:1021400070E08FE30E946120909307018093060165
:10215000892B61F50E94B42064E670E080E40E945F
:1021600005209093070180930601892BF9F464E61A
:1021700070E08CE00E94612090930701809306013B
:10218000892BA1F464E670E080E00E9461209093C6
:10219000070180930601892B49F464E670E08FE320
:1021A0000E94612090930701809306010E94B42051
:1021B000809106010895CF93873008F040C0809148
:1021C000060190910701C0E0892B71F464E670E08C
:1021D00080E40E9405209093070180930601892BDB
:1021E00031F0C0E00E94B4208C2FCF91089564E6B6
:1021F00070E083E10E9461209093070180930601C3
:10220000892B79F764E670E081E40E9405209093C1
:10221000070180930601892B21F784E690E00E9454
:10222000902097FF05C09093070180930601D9CFB6
:10223000C82FC0951092070110920601D3CFCFB1DD
:102240008FB1869586958C73C3708C2BC82FC095E3
:10225000CBCF1F920F920FB60F9211242F933F9363
:102260004F935F936F937F938F939F93AF93BF939E
:10227000CF93DF93EF93FF93D091E900DF708091CC
:10228000EC00C82FC17080FDC0E81092E900809179
:10229000F000877F8093F00078940E94450D1092A3
:1022A000E9008091F00088608093F000CD2BCF7022
:1022B000C093E900FF91EF91DF91CF91BF91AF9172
:1022C0009F918F917F916F915F914F913F912F914E
:1022D0000F900FBE0F901F9018951F920F920FB680
:1022E0000F9211242F933F934F935F936F937F939C
:1022F0008F939F93AF93BF93EF93FF938091E100F0
:1023000082FF09C08091E20082FF05C08091E10058
:102310008B7F8093E1008091DA0080FF24C0809160
:10232000D80080FF20C08091DA008E7F8093DA0091
:102330008091D90080FF9FC080E189BD82E189BD85
:1023400009B400FEFDCF81E080931B038091F6026B
:10235000811109C00E9410030E94DD038091E200F8
:1023600084608093E2008091E10080FF17C080913B
:10237000E20080FF13C08091E2008E7F8093E20034
:102380008091E20080618093E2008091D8008062B9
:102390008093D80019BC85E080931B038091E100F5
:1023A00084FF2DC08091E20084FF29C080E189BDB7
:1023B00082E189BD89B5982F917080FFFBCF809114
:1023C000D8008F7D8093D8008091E1008F7E80932C
:1023D000E1008091E2008F7E8093E2008091E20034
:1023E00081608093E20080911C03882309F449C036
:1023F00084E080931B030E94300D0E94DD068091D3
:10240000E10083FF27C08091E20083FF23C0809119
:10241000E100877F8093E10082E080931B031092AC
:102420001C038091E1008E7F8093E1008091E200A7
:102430008E7F8093E2008091E20080618093E200D1
:1024400042E060E080E00E94AB038091F000886091
:102450008093F000FF91EF91BF91AF919F918F9189
:102460007F916F915F914F913F912F910F900FBE90
:102470000F901F90189519BC10921B031092F60232
:1024800072CF8091E30087FD93E090931B03B3CF5D
:1024900078941F921FB61F9211248F939F93AF932E
:1024A000BF938091B0029091B102A091B202B0911D
:1024B000B3020196A11DB11D8093B0029093B102A9
:1024C000A093B202B093B302BF91AF919F918F914D
:1024D0001F901FBE1F9018952FB7F8948091B002DF
:1024E0009091B102A091B202B091B3022FBF0895B2
:1024F000CF92DF92EF92FF920F931F93CF93DF93D0
:10250000C62F142F022FFC0182818823C1F0609313
:1025100034020E946C129093200280931F02C770B5
:1025200081E001C0880FCA95EAF7DF91CF911F9132
:102530000F91FF90EF90DF90CF900C948F068091D9
:102540003402861351C020911F02309120024FB7F0
:10255000F8948091B0029091B102A091B202B09132
:10256000B3024FBF6C017D01EE24FF24A90170E08E
:1025700060E0821B930BC416D506E606F70608F446
:102580000197883C910580F5D0E2D10FC117B9F0D1
:1025900080E28C0F883040F4C77081E001C0880F62
:1025A000CA95EAF70E948406D83048F481E0912F5A
:1025B000977001C0880F9A95EAF70E948F06802FC6
:1025C0000E948D0BD830B8F4177081E001C0880FDD
:1025D0001A95EAF7DF91CF911F910F91FF90EF903D
:1025E000DF90CF900C948406C77081E001C0880F03
:1025F000CA95EAF7EFCFDF91CF911F910F91FF902E
:10260000EF90DF90CF9008954F925F926F927F92FC
:102610008F929F92AF92BF92CF92DF92EF92FF92F2
:102620000F931F93CF93DF9300D000D00F92CDB7BD
:10263000DEB77C01FC0183819481892B39F0108104
:10264000D180812F8D218F3F09F0F9C50F900F9018
:102650000F900F900F90DF91CF911F910F91FF90EE
:10266000EF90DF90CF90BF90AF909F908F907F9032
:102670006F905F904F9008950E941A09082F682F5D
:1026800089819A810E943706E12FF0E026E0D29EF0
:10269000E00DF11D112434E5039FE00DF11D11241F
:1026A000EE0FFF1FE45BFE4F059114918091F30242
:1026B000882321F08091F4028111ADC5F701828158
:1026C0000930FDE51F0709F0F1C08823C9F18091A9
:1026D000BA0291E0980F9770887F953008F4892BA3
:1026E0008093BA028091BA0287702FEF829FC00157
:1026F00011249595879595958795992790938900AD
:102700008093880090938B0080938A0090938D0033
:1027100080938C004091BA025091BB026091BC0240
:102720007091BD028FE090E00E94F8206091EF026E
:102730007091F0028091F1029091F2020E949F0943
:10274000F7018281882389F0033EFCE51F0709F425
:10275000FEC008F0E8C0013E3CE5130709F4F0C0F4
:10276000023E8CE5180709F4F0C017FF1DC1F70100
:102770008281882309F44DC08091AA02809333029C
:102780001092AA028091B602813009F4E8C0882331
:1027900009F4E1C0823009F4EFC0843009F4F3C0D9
:1027A0008FE39CE90197F1F700C000005801E8941D
:1027B000B7F84CE0C42ED12C95010C2C02C03695F4
:1027C00027950A94E2F72F7087E290E031F0822F8C
:1027D00090E02A3008F0DCC04D960E948D0B94E00A
:1027E000C91AD108ECEFCE16EFEFDE0629F780917B
:1027F000B602813009F4D2C0882309F4CBC08230FC
:1028000009F4C8C0843009F4CDC0809133028093AC
:10281000AA02F7018281882309F437C51092340295
:102820000230FCE51F0708F41BC506312CE5120732
:1028300038F098012A5F3C452730310508F010C573
:102840000E94800A9093CD028093CC020F303CE529
:10285000130709F49EC108F018C108309CE5190758
:1028600009F481C108F0EDC00430FCE51F0709F44C
:102870006EC108F0D3C002303CE5130709F45FC114
:1028800003301C4509F45FC16091CC021091CD0268
:1028900084E090E00E94E620612F81E290E00E94B7
:1028A000E6200E94300DD2CE81E1BBC4F801EC508D
:1028B000FD45E830F10508F043CFEA59FD4D0C9491
:1028C000CC20882309F43CCF8AE893E00E94A00B37
:1028D00037CF882309F434CF80E893E0F7CF8823FB
:1028E00009F42ECF86E793E0F1CF882309F428CFAF
:1028F0008CE693E0EBCF882309F422CF82E693E0C5
:10290000E5CF882309F41CCF88E593E0DFCF882347
:1029100009F416CF8EE493E0D9CF882309F410CFC1
:1029200084E493E0D3CF043E9CE5190791F084E062
:10293000053EECE51E0709F018CF8093B60202C0F1
:102940001092B6020E94B60C10CF81E0F6CF82E062
:10295000F4CF83E0F2CF82EE0E94140B21CF83E00C
:102960000E947A0688E10E94140B88E10E94E90621
:1029700083E00E946F0614CF82EE0E94140B87E55D
:102980000E948D0B0DCF86EE0E948D0B88E1F8CF53
:10299000069723CF82EE0E94E90637CF8CE20E9491
:1029A0008D0B33CF88E2FBCF033FFCE51F0739F1E6
:1029B000A0F4083D3CE51307F1F0093D8CE518074C
:1029C00051F1073D9CE5190709F023CF26E241EEBE
:1029D00061EEC7010E94781239CE053FECE51E0773
:1029E000B1F088F0063F2CE5120709F012CF27E27C
:1029F00045EE66EEEECF27E245EE65EEEACF26E243
:102A000041EE60EEE6CF27E245EE64EEE2CF26E24D
:102A100041EE62EEDECF28E241E0EFCF8091CC02C2
:102A2000806106309CE5190709F447C08091CC020B
:102A3000886007301C4508F440C08091CC02806259
:102A40003CC00B30FCE51F0709F49BC068F409305B
:102A50003CE5130709F48BC00A301C4509F014CF7C
:102A60008091CC028C6029C08091CC028B7F0D308C
:102A70009CE5190711F18091CC028D7F0E301C4529
:102A8000E0F08091CC02877F18C00A3FFCE51F0769
:102A900009F461C060F502313CE5130709F481C017
:102AA00078F400319CE5190709F477C08091CC02D5
:102AB0008F7B01311C4509F0E7CE8093CC02E4CE38
:102AC0000431FCE51F0709F47AC008F470C0053131
:102AD0001C4509F0D9CE8091CC0282FB992790F950
:102AE00021E0922790FB82F990FB83F9E6CF0D3F1E
:102AF0008CE5180709F449C070F40B3FECE51E079C
:102B000071F18091CD028E7F0C3F1C4509F0BCCE47
:102B10008093CD02B9CE0F3F2CE5120709F44BC0CC
:102B200060F101151D4509F0AFCE8091CD02982FBF
:102B3000909591708E7F892B90FB81F9E9CF8091E0
:102B4000CC028160BACF8091CC028260B6CF8091F6
:102B5000CC028460B2CF8091CD028160D9CF8091C8
:102B6000CD028260D5CF8091CC028064A6CF0E9436
:102B7000300D8091CC028068A0CF8091CD0283601F
:102B8000C7CF8091CC028E7F98CF8091CD028D7F70
:102B9000BFCF8091CC028F7E90CF8091CC028F7D71
:102BA0008CCF0E94300D8091CC028F7786CF8091A0
:102BB000CC02837F82CF8091CD028C7FA9CF0E94EF
:102BC000300D9091CC02892F97FB87F9805875CFF3
:102BD00085E356C385E362C3882309F455C00E3DDF
:102BE0009CE5190709F446C00830EDE51E0709F415
:102BF00044C001151C4509F047C00E94300D2FEF5D
:102C000034E38CE0215030408040E1F700C0000008
:102C1000F89481E08093E00080E28093D8001092E5
:102C2000C900EFE1FEE43197F1F700C000001DBAE2
:102C3000109268001CBC10BE1FBA10927A0010924D
:102C40006E0010926F00109271001092720010923C
:102C5000C9001092BC0014B817B81AB81DB810BA41
:102C60001092BC0015B818B81BB81EB811BA0C9455
:102C7000003FECCC0E94BC0CE9CC8091F50291E0C5
:102C800089278093F502E2CCF70100811181882326
:102C9000C9F1C8010E941A09D82E682FC8010E94E4
:102CA0003706B8018D2D0E9482078C01B82EF701DE
:102CB000C580C2943FE0C322D280D1101092A902F5
:102CC0008091A702877079F0DD2069F080E2800FA3
:102CD000883048F082E00E94310A8091A702877014
:102CE000AA24A3948111A12C912E92942FE09222D8
:102CF000FBE0F91508F440C0E92DF0E0E259FD4D84
:102D00000C94CC20C8010E940E06D82ECACF212FC9
:102D10002F70C22E107F19F0C29490EFC922DD20CF
:102D2000C9F0CC2069F080E2800F883010F0B1103B
:102D30000BC08091AA02C82AC092AA020E946A050A
:102D4000802F0E94140B18C08091A902C82AC0923B
:102D5000A902F4CF802F0E94E906CC2069F0C0942C
:102D6000005E083010F0B11028C08091AA02C8227D
:102D7000C092AA020E946A05292D2850330B2430E4
:102D8000310510F40E94DD06AA2009F45FCC809181
:102D9000A70280FD5BCCF70112828595859585950C
:102DA0000E94490AC7010E9404138091A7028595D9
:102DB000859585950E940E0A49CC8091A902C8226A
:102DC000C092A902D7CF312F3F70832E107F1032CF
:102DD00019F0829480EF8822802FBB2041F091E08F
:102DE000B91631F1DD2079F1CC2041F1A9CFDD20F8
:102DF00091F09091AB02892F8829C11003C00E94E5
:102E00008F06BACFE1E0CE12FACF891709F4B4CF1A
:102E10008093AB02B1CFC11006C00E946405882D1B
:102E20000E948406A9CFF1E0CF1609F4A5CFF5CF13
:102E3000DD2031F021E02C1508F49ECF882DDFCF66
:102E4000C1109ACFECCFCC2051F3893349F43FEF36
:102E500087EE93E0315080409040E1F700C00000E1
:102E6000802F0E94E90688CF812F869586958370F2
:102E700061F0813009F080CFC8019370D11002C099
:102E800090E080E00E94990677CFC8019370D1103E
:102E900002C090E080E00E94AF066ECF812F837069
:102EA00009F066C0D11068CF802F82958695877013
:102EB000880F880F602F6F70462E512C712C612C5B
:102EC000082E04C0440C551C661C771C0A94D2F7CB
:102ED00040E050E0BA0104FF0FC04FE050E060E076
:102EE00070E004C0440F551F661F771F8A95D2F704
:102EF0004095509560957095812F86958695837045
:102F0000823019F1D8F40091AC021091AD022091F9
:102F1000AE023091AF02813069F04429552966290B
:102F20007729CB01BA0160237123822393230E9466
:102F3000D30622CF402A512A622A732ACB01BA0132
:102F40006429752986299729F2CF442955296629AC
:102F500077290091AC021091AD022091AE02309120
:102F6000AF02CB01BA016027712782279327DFCFF9
:102F70008695DD2011F0812F8170882309F4FCCE25
:102F8000802F829586958770880F880F602F6F70CD
:102F9000462E512C712C612C082E04C0440C551C5B
:102FA000661C771C0A94D2F740E050E0BA0104FF97
:102FB0000FC04FE050E060E070E004C0440F551FC8
:102FC000661F771F8A95D2F740955095609570954A
:102FD000812F869586958370823019F1D8F40091FF
:102FE000EF021091F0022091F1023091F202813053
:102FF00069F04429552966297729CB01BA01602354
:103000007123822393230E94D309B6CE402A512AEA
:10301000622A732ACB01BA01642975298629972966
:10302000F2CF44295529662977290091EF021091A2
:10303000F0022091F1023091F202CB01BA01602737
:10304000712782279327DFCF1F70DD2029F0812F82
:103050000E94490A802FD3CE802F0E948406812FA0
:103060000E940E0A89CE802FE2EFBE1609F44EC0F0
:10307000EB1578F0F0EFBF1619F121EFB21609F455
:103080003DC0DD2009F465C0C1105ACE812F8F717B
:103090003AC033EFB31609F43EC094EFB912F1CF42
:1030A000DD2009F44BC01F71812F0E94490AF8E00E
:1030B0001F9FC001112483608093A702812F23C02A
:1030C000DD20B9F0C11058CE1F7161E070E080E0E2
:1030D00090E004C0660F771F881F991F1A95D2F7DA
:1030E0000091EF021091F0022091F1023091F20272
:1030F000A6CFE1E0EC1508F43FCEE6CF812F8F712B
:10310000DD2009F4ADCF0E94490A36CE812F8F71A0
:10311000DD20C9F3A5CF60E070E0CB01DD2009F42C
:1031200072CF1F7161E070E080E090E004C0660F34
:10313000771F881F991F1A95D2F765CF81E00E94EB
:10314000310A21E02C1508F017CE82E00E94310AE6
:1031500013CEC1107ACE812F8F7182CFE2EFBE16CF
:10316000D1F1EB1500F1F0EFBF1649F121EFB216E6
:10317000D1F180913602CC2009F441C0882341F07E
:103180008091370291E089278093370210923602AE
:10319000802FD110D6CD0E94E90686E0F70111926A
:1031A0008A95E9F7E9CD34EFB316C1F0B31688F08C
:1031B00085EFB812DECFD110DFCD81E007C0DD2072
:1031C00009F4DACD8091370291E0892780933702A4
:1031D000D3CD81E0D826D0923702CECDD110CCCD40
:1031E00010923702C9CDDD2039F080913602882354
:1031F00049F310923602C0CDCC2021F3BDCD8823F7
:1032000009F4BACDD110B8CD8091370291E0892769
:1032100080933702EECFF70182811982811144CB6E
:1032200082E18A83F70180818B8381818C838EEF99
:103230008D8365E0CE0101960E94FF043FCA85E0C0
:10324000DE01119601900D928A95E1F7F701228136
:1032500089819A81211110CA0E940E06082F14CA72
:103260000631FCE51F0709F0B7CC8091AA028A7AE3
:1032700091E009F490E0909335028111A9CC89E2A4
:103280000E94DA050E946A05E1C906311C4509F071
:10329000FBCC8091350281119DCC89E20E94AF0563
:1032A000F1CF1F93CF93DF9380913D02807FC1F4D4
:1032B00080913A028823A1F080916F02C0913E0272
:1032C000609138027091390240913B0250913C026A
:1032D000D62FD723DA01A095B09516E0C81304C005
:1032E000DF91CF911F91089590E04115510511F0A4
:1032F000DF3F31F401968770F1CF2A0F3B1F17C0D3
:10330000189FF001199FF00D1124E15CFD4F218100
:103310002713F0CF20812613EDCF22812111EACF90
:10332000238134812417350740F3241B350B283CB7
:10333000310500F720913D022F70206120933D025E
:1033400026E0289FF001299FF00D1124EC5BFD4F32
:1033500080818F708061808388E392E00E940413F3
:10336000DF91CF911F910C946506BF92CF92DF92AF
:10337000EF92FF920F931F93CF93DF93CDB7DEB7FA
:1033800061970FB6F894DEBF0FBECDBF8C0185E00C
:10339000F801DE011D9601900D928A95E1F7D801A2
:1033A0002C9111963C9111971296EC901297809166
:1033B0003B0290913C02009709F463C140913802AE
:1033C00050913902642F65236F3F09F45AC1139657
:1033D000CD90DC90B0903A02BB2009F413C1C8161E
:1033E000D906C0F1F601E81BF90BCF01FF24F394D5
:1033F000883C910508F0F12C80913D02982F907F38
:10340000FF2009F4C1C091117DC0FE2C531327C0C9
:10341000421325C0E11023C08F70806180933D026C
:1034200088E392E00E94041380913D02D801159632
:103430008C938F2D61960FB6F894DEBF0FBECDBF73
:10344000DF91CF911F910F91FF90EF90DF90CF9080
:10345000BF900895809590958C0D9D1DC7CFCD2868
:1034600029F0822F83238F3F09F035C180E0B82FE8
:10347000B170DB2E80FF3CC080916F0240913E0214
:1034800056E0841315C02D873E878D859E850E944A
:103490005C09292F22952F702230F0F0243018F586
:1034A0009F70F1F0F8019581907FD1F4D12C1EC06E
:1034B00090E0589FF001599FF00D1124E15CFD4F01
:1034C0006181361306C06081261303C06281E61253
:1034D0000FC001968770D5CF9F7011F0882331F30C
:1034E000805E883018F3C8010E940413FD2CA1CF20
:1034F000EE2009F49ECF80913D02816080933D02D1
:10350000F12C97CF531313C0421311C0E1100FC019
:10351000D80115968C93C8010E94041386E0F80127
:10352000A8E3B2E001900D928A95E1F782CF2D8752
:103530003E878D859E850E946609882309F1EE20CD
:10354000F9F080913D02803270F020913802309184
:10355000390238872F831986DB86CA868C87CE018D
:1035600007960E94041386E0F801A8E3B2E00190F8
:103570000D928A95E1F70E945119FF24F39459CFD7
:10358000C8010E940413F9CF91110CC088E392E0A6
:103590000E94041386E0E8E3F2E0DF011D928A95C1
:1035A000E9F747CF531312C0421310C0E1100EC009
:1035B000F8018583C8010E940413E8E3F2E086E085
:1035C000DF011D928A95E9F7FB2C33CF2D873E87CB
:1035D0008D859E850E946609882391F2EE2081F2F6
:1035E00080913D02803208F4BECF209138023091A4
:1035F00039023A8329831B82DD82CC828E83CE01FD
:103600000196AFCFC816D90640F0C81AD90AB8EC4F
:10361000CB16D10448F0F12CBDCF809590958C0D40
:103620009D1D883C9105B8F7FE2CEE2009F4A8CF2B
:10363000531316C0421314C080913D0280FD6ECF1B
:10364000982F907F09F46ACFF8018583903F09F4A1
:1036500062CF982F907F905F8F70892B85835BCF8F
:103660002D873E878D859E850E94660981117BCFBF
:1036700080913D02816080933D02C8010E94041345
:10368000D8CEEE2009F47CCF2D873E878D859E8590
:103690000E946609F82E882309F472CF86E0F801AB
:1036A000A8E3B2E001900D928A95E1F7809138028B
:1036B000909139020E945C0992959F70963041F476
:1036C0008091370291E089278093370290933602E8
:1036D0000E945119AECE81E08E25C9CE1F93CF93A3
:1036E000DF93CDB7DEB767970FB6F894DEBF0FBE96
:1036F000CDBF6D8B7E8B8F8B8E899F89892BE1F05F
:10370000852F84238F3F09F098C05FEF4FEF14C0DF
:1037100030913702332309F44EC0E42FF0E036E055
:10372000539FE00DF11D1124EE0FFF1FE15EFE4FD0
:1037300040815181822B8C931A8A198A4B8B5C8B26
:1037400085E0FE017396DE011D9601900D928A952B
:10375000E1F786E0FE013D96DE01179601900D929D
:103760008A95E1F7CE0107960E94B519811112C022
:1037700086E0FE013796DE01119601900D928A9542
:10378000E1F78A859B85892B29F08F81988589238C
:103790008F3FC9F516E080916F0290913E02891328
:1037A00020C067960FB6F894DEBF0FBECDBFDF9185
:1037B000CF911F91089580958223BDCF96E0929F6F
:1037C000D001939FB00D1124A15CBD4FFE01319635
:1037D00001900D929A95E1F780933E020E94650652
:1037E000D9CF819FC0011124815C9D4F0E94B519E2
:1037F0008823B9F280916F0290E001968770992733
:1038000080936F02C8CF20913E0230E0C90101963B
:103810008770992740916F024817190679F60E9420
:10382000300D10923E0210926F0286E0E8E3F2E063
:10383000DF011D928A95E9F7ADCF81E090E0042E7B
:1038400001C0880F0A94EAF7A52FB0E0AB5DBD4F29
:103850002C913D8931115CCF322F38235BCF8F9271
:103860009F92AF92BF92CF92DF92EF92FF920F930F
:103870001F93CF93DF938091060190910701892BCD
:1038800091F080911D028F5F80931D0281110BC00A
:103890000E94641090E09093070180930601892BA9
:1038A00011F40E943C0C0EEB12E07801C0E0912C68
:1038B00037E0C32ECC0E8C2F0E9410108C2D0E944E
:1038C00010108C2F0E94DB10D7019D917D01D12C0F
:1038D000891729F0FD0131978083DD24D3948C2D45
:1038E0000E94DB10F7019681891709F465C0868371
:1038F00081E08D29982A0E946A0ACF5FC730C1F6FD
:103900000E946C126AEF70E00E94B820882ED0915D
:103910001902DD2309F4A2C010921902E091B40249
:10392000F091B5027F012EE0E20EF11C40E0CBEFFA
:103930002AEFC22ED12C51915B3F81F0652F70E0B0
:10394000282D392F8517D0F1261B370B2E31310545
:10395000DCF19F0121503109D901CC93EE15FF050F
:1039600051F740931902911002C0411179C0109291
:103970001802A091B402B091B50220911902E1EDB4
:10398000F2E090E04191E80139918E01431751F046
:103990004C914B3FD9F48C93AF0141505109EA014E
:1039A000388321E01196D2E0EF3DFD0759F72093CF
:1039B00019029093180258C080E09BCFD601A61B35
:1039C000B70B2A0F3B1FC2CF4D2FC8CF91E0EACFD4
:1039D0009170892B09F459C080911B0290911C02AF
:1039E0008130984780F01092F5026091EF0270915B
:1039F000F0028091F1029091F2020E949F091092D0
:103A00001C0210921B0280911B0290911C020196D5
:103A100090931C0280931B02892DDF91CF911F91FF
:103A20000F91FF90EF90DF90CF90BF90AF909F905D
:103A30008F9008950E9499092EC0892B69F31092E6
:103A40001C0210921B026091EF027091F0028091B3
:103A5000F1029091F2020E949F09DECF911087CF70
:103A600090911802911183CF80911B0290911C02BA
:103A70002091F502222309F3009709F0A9CF0E94B3
:103A800090090E948D090E948A09C0911A02CC23D4
:103A900089F20E948D0981E0C827C0931A029CCF49
:103AA000CDB7DEB7C955D1090FB6F894DEBF0FBE4A
:103AB000CDBF84B7877F84BF0FB6F894A895809157
:103AC0006000886180936000109260000FBE80E803
:103AD00090E00FB6F89480936100909361000FBE60
:103AE00085B7806885BF85B7806885BF0E94100351
:103AF0000E94DD038091E20084608093E20078946C
:103B000080911B038823A1F01091E9001F70909110
:103B1000EC00892F817090FD80E8182B1092E9004D
:103B20008091E80083FD0E94450D1F701093E9000D
:103B300082E084BD93E095BD9AEF97BD80936E00BF
:103B40000E94641090E090930701809306010E9408
:103B50006A0A0E94790AAEEBB2E0FFEDCF2EF2E0E6
:103B6000DF2EE1EDF2E011921D92CE16DF06D9F7BD
:103B70008EE090E00E941A218093B4029093B502E7
:103B8000FC010E962BEF2193E817F907E1F790E07F
:103B900080E00E94E0208F3E9E4F11F00E94BC0CFE
:103BA0008CE090E00E94D22090E0B0E0A0E0809312
:103BB000B6029093B702A093B802B093B90289EA13
:103BC0008093800089E08093810024982C983F980E
:103BD0008AB18F7C8AB96E98479A8BB180638BB912
:103BE000769A8FE090E00E94DA206093BA02709398
:103BF000BB028093BC029093BD0267708FEF689FF9
:103C0000B001112475956795759567957727709321
:103C100089006093880070938B0060938A00709392
:103C20008D0060938C000E943C0C90E080E00E942C
:103C3000E0208F3E9E4F11F00E94BC0C82E090E08D
:103C40000E94D2208093E0020E94800A9093CD02CD
:103C50008093CC0283E090E00E94D220682F70E035
:103C600090E080E00E94D30688E091E09093CF023C
:103C70008093CE02EE24EA949EEFF92E23E0522E9A
:103C800031E4A32EB12CAC0EBD1EF2E0AF0EB11C80
:103C900040E1342E52E1252E68E1862E912C70E40D
:103CA000472E80911B03853009F484C00E942F1C8D
:103CB000A1EEB2E0E1EDF2E010E000E0302F819102
:103CC0002D91281709F4C2C090E077247394282717
:103CD000422F472109F4B5C061969FAF6197629664
:103CE0003FAF6297872191E009F490E063969FAF20
:103CF00063970E946C128160782F65969FAF8EAF9C
:103D0000659761964FAD619762965FAD62976396D6
:103D10006FAD639765968FAD65970E946E1BF80136
:103D2000EF51FD4F8081782670820E94DD069091D0
:103D3000DF02891721F00E94DD068093DF02809167
:103D40001B03843009F0ADCF8093E9008091E80037
:103D500082FFA7CF8091E80090E085FF06C00E9417
:103D60002F03882309F498C091E08091E8008B77B5
:103D70008093E800992309F494CF19811111AAC006
:103D80008091F502882309F4BFC01092F50281E00A
:103D90008093F40222961FAE229723961FAE23979C
:103DA0002496FFAE249763E0CE018F5B9F4F0E9465
:103DB000FF0477CF80911B03843009F11092D00269
:103DC0000FB6F894A895809260000FBE40926000F4
:103DD00083B7817F846083BF83B7816083BF78941A
:103DE000889583B78E7F83BF0FB6F894A89580918E
:103DF0006000886180936000109260000FBE809127
:103E00001A03882309F44DCF0E94641090E0909328
:103E10000701809306010E946A0A0E94790AE1ED77
:103E2000F2E01192CE16DF06E1F70E942F1CE1EDC1
:103E3000F2E081918111A8C022E0EF3DF207C9F7BD
:103E400030CF9F5F770C963009F042CF0F5F1F4F46
:103E50000E30110509F032CF6696EFAE6697679681
:103E6000EFAE679768961FAE68970E946C128160EC
:103E7000782F6A969FAF8EAF6A9766964FAD66971A
:103E800067965FAD679768966FAD68976A968FADD6
:103E90006A970E946E1B49CF80E4682E712C8E01B8
:103EA0000F5F1F4F8091E80085FD0AC08091E800F8
:103EB0008B778093E8000E942F03882399F354CFD7
:103EC0008091F100F80181938F01F1E06F1A710880
:103ED00049F74ACF1130C1F422961FAE229723969C
:103EE0001FAF23978CE0E3E1F1E0D50101900D9243
:103EF0008A95E1F76096FFAE60976FE0CE018F5B29
:103F00009F4F0E94FF04CDCE8091F4028823C1F11F
:103F1000123041F01330F1F081E022968FAF2297FA
:103F200061E042CF6091EF027091F0028091F10266
:103F30009091F2020E94170522961FAE22972396B7
:103F40001FAF239724968FAF24972596FFAE259712
:103F500064E02ACF8A81813041F0882341F08230A9
:103F6000D9F681E08093F30202C01092F302229608
:103F70001FAE229723965FAE23978091F302E2CF84
:103F80002296EFAE2297CCCF39BC29BC09B400FEF3
:103F9000FDCF8091D8008F7D8093D8008091E00084
:103FA00082608093E0008091E00081FDFCCF79CEBB
:103FB0001F921FB61F9211248F939F93AF93BF93AD
:103FC0008091D002811113C08091B0029091B10212
:103FD000A091B202B091B3024196A11DB11D809390
:103FE000B0029093B102A093B202B093B302BF911A
:103FF000AF919F918F911F901FBE1F9018951092A7
:10400000B9008CE08093B8000895EF92FF920F936F
:104010001F93CF93DF93182FEB011092BC0084EA1B
:104020008093BC000E946C127C018091BC0087FFD1
:1040300027C08091B900887F883029F08091B9002D
:10404000887F8031D9F51093BB0084E88093BC0051
:104050000E946C128C018091BC0087FF24C02091CB
:10406000B900287F90E080E02831B1F081E090E055
:10407000203411F490E080E09195819591090CC075
:10408000CF3FDC0791F20E946C128E199F098C17AA
:104090009D0758F28EEF9FEFDF91CF911F910F9107
:1040A000FF90EF900895CF3FDC07A9F20E946C12B9
:1040B000801B910B8C179D0770F2ECCF8FEF9FEF59
:1040C000EBCF0F931F93CF93DF93EB018093BB0054
:1040D00084E88093BC000E946C128C018091BC002B
:1040E00087FF11C02091B900287F81E090E028323D
:1040F00011F490E080E0919581959109DF91CF9145
:104100001F910F910895CF3FDC0741F30E946C127D
:10411000801B910B8C179D0708F38EEF9FEFEECF5E
:104120000F931F93CF93DF93EC0184E88093BC003F
:104130000E946C128C018091BC0087FF08C08091A6
:10414000BB0090E0DF91CF911F910F910895CF3F79
:10415000DC0789F30E946C12801B910B8C179D0762
:1041600050F38EEF9FEFEECF84E98093BC0008956B
:10417000AA1BBB1B51E107C0AA1FBB1FA617B7078D
:1041800010F0A61BB70B881F991F5A95A9F78095A9
:104190009095BC01CD010895EE0FFF1F0590F4919D
:1041A000E02D0994F999FECF92BD81BDF89A992727
:1041B00080B50895A6E1B0E044E050E00C940C21F5
:1041C000A8E1B0E042E050E00C940C21262FF999D0
:1041D000FECF92BD81BDF89A019700B4021639F066
:1041E0001FBA20BD0FB6F894FA9AF99A0FBE089537
:1041F0000396272F0E94E7200E94E620252F0E9489
:10420000E720242F0C94E7200196272F0E94E72017
:104210000C94E620DC01CB01FC01F999FECF06C02D
:10422000F2BDE1BDF89A319600B40D924150504074
:10423000B8F708950F931F93CF93DF9382309105C2
:1042400010F482E090E0E0912703F091280330E041
:1042500020E0B0E0A0E0309799F42115310509F491
:1042600047C0281B390B24303105C0F58A819B815A
:104270006115710571F1FB0193838283FE0111C009
:10428000408151810281138148175907F8F048177E
:10429000590799F4109761F012960C9312971396A0
:1042A0001C933296CF01DF91CF911F910F9108950A
:1042B0000093270310932803F4CF2115310519F03B
:1042C0004217530718F49A01BD01EF01DF01F8010D
:1042D000C2CF9093280380932703D0CFFE01E20F33
:1042E000F31F819391932250310939832883DACFC8
:1042F0002091250330912603232B41F420910201C4
:10430000309103013093260320932503209100016F
:10431000309101012115310541F42DB73EB740918F
:10432000040150910501241B350B40912503509148
:1043300026034217530708F0B5CF241B350B281767
:10434000390708F4AFCFBC016E5F7F4F26173707E0
:1043500008F4A8CF640F751F70932603609325039C
:10436000FA01819391939ECFCF93DF930097E9F069
:10437000FC01329713821282C0912703D091280347
:10438000DE0130E020E02097A1F420813181820F0E
:10439000931F20912503309126032817390709F030
:1043A00067C0F0932603E0932503DF91CF91089532
:1043B000DA01AE17BF0708F040C012964D915C912C
:1043C00013979D014115510599F7D9011396FC9357
:1043D000EE9312974D915D91A40FB51FEA17FB075D
:1043E00079F4808191810296840F951FD9011196ED
:1043F0009C938E938281938113969C938E931297B4
:10440000B0E0A0E08A819B810097B9F5FE0181911F
:104410009191E80FF91F80912503909126038E1743
:104420009F0719F6109761F5109228031092270341
:10443000D0932603C0932503B8CFB383A2834081D2
:104440005181840F951FA817B90771F44E5F5F4F14
:104450008D919C911197480F591F5183408312965B
:104460008D919C91938382832115310509F0ADCF05
:10447000F0932803E093270398CFDE01EC01C2CF2D
:1044800013961C921E921297D3CFF894FFCF750902
:1044900075097E097E0980097E097E097E097509F4
:1044A000750985097E097E098509BA09C609CB09FE
:1044B000C409C909D009CE09640E8C0EF80F8C0E00
:1044C000F80FBF0EE00EF80FA90FB60F61146914B4
:1044D0006F1475147B14811487148D148716871636
:1044E000E316E3163417BC16AE18BC164E17241884
:0444F0003318331832
:1044F4000000290320002000FC04D00AFB04CA0A9F
:10450400C10A01474772584D2F79454C413000008C
:104514000D010D020D030D040D050D000C010C021F
:104524000C030C040C050C000B010B020B030B0415
:104534000B050B000A010A020A030A040A050A0011
:10454400090109020903090409050900080108020F
:104554000803080408050800070107020703070405
:104564000705070006010602060306040605060001
:1045740005010502050305040505050004010402FF
:1045840004030404040504000301030203030304F5
:1045940003050300020102020203020402050200F1
:1045A40001010102010301040105010000010002EF
:1045B40000030004000500818283E200E900EA00B0
:1045C400B500B600B700CD008301CC008A0192018A
:1045D40094012102230224022502260227022A0230
:0845E400B300B4006F00700089
:00000001FF
