:100000000C9477030C9494030C9494030C94940331
:100010000C9494030C9494030C9494030C94940304
:100020000C9494030C9494030C9467120C94231274
:100030000C94D5220C9494030C9494030C94940384
:100040000C9494030C9494030C9494030C949403D4
:100050000C9494030C94410E0C9494030C9494030C
:100060000C9494030C9494030C9494030C949403B4
:100070000C9494030C9494030C9494030C949403A4
:100080000C9494030C9494030C9494030C94940394
:100090000C9494030C9494030C9494030C94940384
:1000A0000C9494030C9494030C94940300000000AB
:1000B0000000000000000000000000000000000040
:1000C0007E0F00D4FFFFFFC7000000780000000093
:1000D000000000002A2B28000000000000000000A3
:1000E0000000000000000029000000002C1E342049
:1000F000212224342627252E362D3738271E1F206F
:100100002122232425263333362E37381F040506B3
:100110000708090A0B0C0D0E0F10111213141516F7
:100120001718191A1B1C1D2F3130232D35040506F5
:100130000708090A0B0C0D0E0F10111213141516D7
:100140001718191A1B1C1D2F3130354C29002B0094
:100150003900E100010000002100140004621D00CC
:1001600001004D0020001A0015641B00010028004A
:100170001F0009001661060003582A421E001300E2
:100180001768070001584A00270005000A6F190088
:10019000000001003500350200002A0000000100C7
:1001A0002D002D0200002C000000010022000D0097
:1001B00010670E000000010023000F0011780B00F3
:1001C00050004B00240018000871360051002C002C
:1001D00025001C000C743700520028002600330054
:1001E000127238004F004E00010031003400E5006B
:1001F0000151000029000100010001000100000080
:100200003E001E0220022202010001003D001F02EA
:1002100021022302010001003C002F0226022F00D0
:10022000105001003B003002270230001050010046
:100230003A003102240235020000010001000100F1
:1002400000000100000001000100010000000100A9
:10025000000001003F0057002E0056000000010082
:100260004000240021001E0027000100410025005D
:1002700022001F0001000100420026002300200090
:1002800063000100430055006300540001000100B9
:10029000440045006300010001000000010001006E
:1002A000010001000100000001000C5D0D5D115D09
:1002B00001000100010001000E5D125D010001005E
:1002C000010001000F5D135D01000100010001004C
:1002D000105D145D01000100010001000100155DC9
:1002E0000000010001000100000001000000010009
:1002F00001000100000001000000010001000100F8
:1003000001000100000001000100010001000100E6
:1003100001000100010001000100010001000100D5
:1003200001000100010001000100010001000100C5
:1003300001000100010001000100010001000100B5
:10034000010000000100010029000100010000007F
:1003500001000100FA000100085D01000100F50044
:10036000F100F500010001000100F000F1000100C2
:10037000105001000100F400F300F40010500100DF
:1003800001000100F900FA00000001000100010075
:100390000000010000000100010001000000010058
:1003A000000001000100A900A800AA00000001004F
:1003B00001004A0050004D000100010001004B0007
:1003C00051004E0001000100010001005200010037
:1003D00001000100010001004F00010001000100C7
:1003E000005C010001000100010000000102E301C6
:1003F000010A0103E3000102E001014F0103E000F3
:100400000102E00101520103E0000102E00101519B
:100410000103E0000102E00101500103E0000102DC
:10042000E30101190103E3000102E30101060103F5
:10043000E3000102E301011B0103E3000102E30108
:10044000011D0103E3000102E30102E101011D01BD
:1004500003E10103E3000A00000000000306B2000C
:10046000080001000000A800080002000200A0002F
:100470001400030057494E5553420000000000008D
:10048000000000008400040007002A00440065000A
:10049000760069006300650049006E007400650025
:1004A0007200660061006300650047005500490066
:1004B00044007300000050007B00390044004200FB
:1004C000370046003100460044002D00370045004B
:1004D000370041002D0034003000300038002D007E
:1004E00039003300360042002D0036004200410042
:1004F000360043003100390041003300300038003D
:1005000063007D00000000001B0301636F6E6669DD
:10051000677572652E6572676F646F782D657A2EC8
:10052000636F6D0005010902A10185020901A100A7
:100530000509190129051500250195057501810297
:100540009501750381010501093009311581257F68
:1005500095027508810609381581257F9501750872
:100560008106050C0A38021581257F9501750881E1
:1005700006C0C005010980A10185031A81002A83F4
:1005800000160100260300950175108100C0050CBE
:100590000901A10185041A01002A9C021601002606
:1005A0009C02950175108100C005010906A1018515
:1005B00005050719E029E715002501950875018152
:1005C000020507190029EF1500250195F075018135
:1005D0000205081901290595057501910295017516
:1005E000039101C005010906A101050719E029E7EA
:1005F0001500250195087501810295017508810195
:100600000507190029FF150026FF009506750881CA
:1006100000050819012905950575019102950175D7
:10062000039101C009025200030100A0FA0904006D
:10063000000103010100092111010001224000070E
:1006400005810308000A09040100010300000009F4
:10065000211101000122C0000705820320000A09C0
:1006600004020002FF0000000705830340000507A5
:100670000504034000051201100200000008EDFE11
:1006800007130100010203010403300000001603F8
:100690004500720067006F0064006F007800200062
:1006A00045005A00000008035A00530041000000B2
:1006B00004030904050F3900021C100500DF60DD8A
:1006C000D88945C74C9CD2659D9E648A9F000003D3
:1006D00006B20045001810050038B60834A909A074
:1006E000478BFDA0768815B66500014200001124F5
:1006F0001FBECFEFDAE0DEBFCDBF11E0A0E0B1E07A
:10070000EAE1FBE402C005900D92A83FB107D9F7DA
:1007100023E0A8EFB1E001C01D92A533B207E1F7D5
:100720000E94CB1F0C9456250C940000E8EDF0E0DD
:1007300080818E7F80831092E2001092DA00109206
:10074000E100A0EEB0E08C9181608C9380818F7786
:10075000808319BCA7EDB0E08C918E7F8C93808153
:100760008F7E80831092020308952091E4003091DF
:10077000E50095E6A9012091EC00822F817020FF11
:1007800006C08091E80080FF06C080E008952091B7
:10079000E80022FD1AC080912703882389F0853064
:1007A00089F08091EB0085FD0FC02091E40030912D
:1007B000E50042175307F9F29150E1F684E00895FD
:1007C00082E0089583E0089581E00895EF92FF921A
:1007D0000F931F93CF937C018B010E94B503C82F09
:1007E000882371F08C2FCF911F910F91FF90EF9084
:1007F0000895F70181917F018093F1000150110963
:100800000115110579F38091E80085FDF2CF809103
:10081000E8008E778093E8000E94B503882381F377
:10082000C82FE0CF8091290387FF13C08091E80093
:1008300082FF06C08091E8008B778093E80004C0B7
:10084000809127038111F2CF089580912703882397
:10085000D9F38091E80080FFF8CF8091E8008E778F
:10086000ECCF982F9093E900242F762F50E0891732
:1008700031F07091EC002091ED005091F00021FDDD
:1008800007C09F5F973071F78093E90081E008957A
:100890003091EB003E7F3093EB003091ED003D7FD7
:1008A0003093ED003091EB0031603093EB007093AA
:1008B000EC002093ED005093F0002091EE0027FD16
:1008C000E0CF80E00895CF92DF92EF92FF920F93F6
:1008D0001F93CF93DF93C8EDD0E088818F7E88830C
:1008E000E7EDF0E080818160808384E082BF81E079
:1008F0008093020388818E7F888302EE10E0F801E6
:1009000010821092DA0081EEC82ED12CF6011082EE
:1009100088818F77888388818068888388818F7DAC
:10092000888319BC10922703109228031092260383
:100930001092250390EEE92EF12CF70180818B7F38
:10094000808388818160888342E060E080E00E944B
:100950003104F60180818E7F8083F801808181607F
:100960008083808188608083F70180818E7F80838F
:10097000888180618883DF91CF911F910F91FF90D3
:10098000EF90DF90CF900895FC0180912F0390911C
:10099000300386179707A0F06115710529F480913F
:1009A000E8008E778093E80090E06115710551F4BE
:1009B000911108C08091E80082FF35C080E0089561
:1009C000BC01F2CF809127038823C9F18530C9F19A
:1009D0008091E80083FD31C08091E80082FDEACF7C
:1009E0008091E80080FFE1CF8091F3002091F20038
:1009F000382F6115710519F02830310558F091E054
:100A00002830310509F090E08091E8008E778093DE
:100A1000E800CBCF84918093F10031966150710949
:100A20002F5F3F4FE6CF80912703882341F0853029
:100A300041F08091E80083FFBDCF81E0089582E01E
:100A4000089583E00895FC0180912F039091300375
:100A500086179707A0F06115710529F49091E800B9
:100A60009E779093E80090E06115710551F4911123
:100A700008C08091E80082FF34C080E00895BC0186
:100A8000F2CF809127038823C1F18530C1F1809195
:100A9000E80083FD30C08091E80082FDEACF8091BC
:100AA000E80080FFE1CF8091F3002091F200382F21
:100AB0006115710519F02830310558F091E02830A2
:100AC000310509F090E02091E8002E772093E800AE
:100AD000CBCF81918093F100615071092F5F3F4F1F
:100AE000E7CF80912703882341F0853041F0809142
:100AF000E80083FFBECF81E0089582E0089583E09F
:100B0000089580912703843011F482E0089581E0F4
:100B1000089580910403089520912703243099F4C7
:100B200023E02093E90070E050E040E00E94E603FB
:100B3000882321F010920003109201038091E800B5
:100B40008E778093E80008959091E402803F41F40D
:100B50008091E50287FD1092E502992371F00895D6
:100B6000813F29F48091E5021816ACF3F6CF823F5D
:100B700081F497FFF2CF1092E4028091E502909108
:100B8000E602892B9091E702892B49F71092E8023F
:100B90000895833F19F4191674F3DFCF893F39F4B0
:100BA0008091E6021816CCF61092E602D6CF8A3F64
:100BB00029F48091E60287FFD0CFF6CF8B3F39F43E
:100BC0008091E70287FFC9CF1092E702C6CF8C3F22
:100BD00029F48091E7021816BCF3BFCF843F31F4AB
:100BE0008091E3028E7F8093E302B7CF853F21F4AB
:100BF0008091E3028D7FF7CF863F21F48091E3025D
:100C00008B7FF1CF873F21F48091E302877FEBCF89
:100C1000883F21F48091E3028F7EE5CF8D3F31F450
:100C20008091B6028E7F8093B60297CF8E3F21F4DB
:100C30008091B6028D7FF7CF8F3F09F08ECF8091E4
:100C4000B6028B7FF0CF8091B60280FD16C081FD89
:100C500016C082FD16C08091E8028823A1F0883278
:100C600080F428E0829FC001112468E270E00E94B5
:100C7000C923862F672B39F0089582E0089584E018
:100C8000089588E0089581E008958091B60280FD7E
:100C900016C081FD16C082FD18C08091E80288232D
:100CA00091F08C3390F423E2829FC00111246CE315
:100CB00070E00E94C923862F672B49F0089588E0D1
:100CC000089581E1089585E0089583E2089581E023
:100CD0000895803F31F40E94450681958093E50296
:100CE0000895813F19F40E944506F8CF823F31F400
:100CF0000E94450681958093E4020895833F19F48C
:100D00000E944506F8CF893F29F40E94230680936C
:100D1000E60208958A3F21F40E9423068195F7CFC9
:100D20008B3F31F40E94230681958093E70208955A
:100D30008C3F19F40E942306F8CF843F31F4809150
:100D4000E30281608093E3020895853F21F480915E
:100D5000E3028260F7CF863F21F48091E302846052
:100D6000F1CF873F21F48091E3028860EBCF883F89
:100D700021F48091E3028061E5CF8D3F31F48091D1
:100D8000B60281608093B60208958E3F21F480916F
:100D9000B6028260F7CF8F3FB9F78091B6028460C8
:100DA000F1CFCF92DF92EF92FF920F931F932FB765
:100DB000F8944091B2025091B3026091B4027091E4
:100DC000B5022FBF6A017B01EE24FF248C0130E0C5
:100DD00020E0C016D106E206F30650F0481B590B7E
:100DE000CA011F910F91FF90EF90DF90CF9008956F
:100DF00041505109F3CFCF92DF92EF92FF926C01F5
:100E0000EE24FF2420E0C114D104E104F10419F020
:100E1000C701B60120E1C72ED82EE92EFF24C11448
:100E2000D104E104F10419F0285FC701B6016B0198
:100E30007C0154E0F694E794D794C7945A95D1F77F
:100E4000C114D104E104F10419F02C5FC701B6010B
:100E50006B017C0142E0F694E794D794C7944A95DD
:100E6000D1F7C114D104E104F10419F02E5FC701D8
:100E7000B6019695879577956795672B682B692BB3
:100E800009F02F5F822FFF90EF90DF90CF900895B1
:100E90008091AD0281111092AD0208958091AC0253
:100EA0009091AB02892B9091AA02892B8093F80133
:100EB0009091AD029923A1F0892B8093F801809144
:100EC0001201882341F18091CF0287FF24C08EE177
:100ED000EAEFF1E090E0815000F591110E9448079F
:100EE000E091D102F091D2023097E1F080911201AD
:100EF000882359F08091CF0287FF07C08091F801C5
:100F00008093F90185E08093F8010280F381E02D60
:100F100088EF91E0099486E0DBCF21912223D9F27A
:100F20009F5FD9CF0895909112019923D1F09091AC
:100F3000CF0297FF16C0E82FE695E695E695EE31CD
:100F4000E0F4F0E0E850FE4F282F277081E090E0B9
:100F500001C0880F2A95EAF78095928189238283C0
:100F60000895EAEFF1E09191891303C0DF01119731
:100F70001C9292E0E030F907B1F7089590911201C8
:100F80009923C1F09091CF0297FF14C0E82FE69506
:100F9000E695E695EE31F8F4F0E0E850FE4F877004
:100FA00021E030E001C0220F8A95EAF78281822B8E
:100FB00082830895AAEFB1E0EFEF90E02D918217C0
:100FC00051F0EF3F19F4211101C0E92F9F5F9630D6
:100FD000A9F7EF3F09F408950E2E000CFF0BE8501F
:100FE000FE4FE6CFE92FEE0FE90FEE0F8E0F982F91
:100FF000977086958695869525E0829FF00111244D
:10100000EE58FD4F50E040E080E0219130E0092EA5
:1010100002C0369527950A94E2F721703327042EF3
:1010200001C0220F0A94EAF7822B4F5F5F4F4530D1
:10103000510559F70895E92FEE0FE90FEE0F8E0FC6
:10104000982F977041E001C0440F9A95EAF7869572
:101050008695869595E0899FF0011124EE58FD4F05
:1010600030E020E070E05191DF011197CB01022EBA
:1010700002C0969587950A94E2F78170819585273D
:10108000842385278C932F5F3F4F2530310559F7F7
:1010900008958091710290914002981301C00895C3
:1010A0008F5F8770FACF882341F080959091AB02D3
:1010B00089238093AB020C944E070895882339F05E
:1010C0009091AB02982B9093AB020C944E0708952D
:1010D000882341F080959091AC0289238093AC02E3
:1010E0000C944E070895882339F09091AC02982B08
:1010F0009093AC020C944E070895209123023091F6
:1011000024022817390771F0909324028093230258
:10111000E091D102F091D202309721F00084F18564
:10112000E02D099408952091210230912202281780
:10113000390771F09093220280932102E091D1024D
:10114000F091D202309721F00680F781E02D0994CA
:101150000895E091D102F091D202309721F00190F0
:10116000F081E02D099480E008959091CF0292FFE4
:1011700006C0282F28712830F9F4877F846093FFF8
:1011800006C0282F28712831F1F4877E84612091D0
:10119000D00220FF06C0382F38713830D9F4877F4D
:1011A000816021FF06C0282F28712831D1F4877E65
:1011B000816194FD877E0895282F24712430F9F6EB
:1011C0008B7F8860DCCF282F2471243101F78B7E40
:1011D0008861DDCF382F3171313019F78E7F88600B
:1011E000E0CF282F2171213121F78E7E8861E1CF58
:1011F000CF93DF93972F70E026E0929F600D711DD3
:101200001124FB0134E5839FE00DF11D1124EE0F45
:10121000FF1FE45BFE4FC591D491CE01C238D105CA
:10122000B9F1E8F5C133D10509F499C050F5C932D7
:10123000D10509F48DC0CA32D10509F497C0C11592
:1012400042E5D40708F0C4C0C11521E5D20708F073
:1012500038C1C83ED10508F09DC0C03ED10568F533
:10126000C83AD10508F089C0C53AD10508F005C1D2
:10127000C130D10511F1209709F443C02497E8F457
:1012800040C0C533D10509F45CC0C933D105B9F6F6
:101290002091CF02237089F080EE90E00EC0C33E13
:1012A000D10591F168F4C03ED105F9F0C23ED105F7
:1012B00031F62091CF0222FD20C0DF91CF91089519
:1012C000C63ED10561F1C73ED10581F1C43ED105CD
:1012D00009F0B5CF2091D00221FFEFCF8091CF024E
:1012E00084FD0FC087EE90E0E8CF2091CF0220FD73
:1012F00019C13091D00230FFE0CF83EE90E024FF9F
:10130000DCCF90E080E0D9CF2091CF0222FD0DC14B
:101310003091D00230FDC0CF24FFCFCFF2CF20914B
:10132000CF0223FFCACF24FDECCFDCCF2091CF0228
:1013300023FDFEC03091D00231FFEECF84EE90E06D
:10134000BCCF2091CF0225FFB8CF89E290E0B5CF86
:101350002091CF0225FFB1CF85E390E0AECF209161
:10136000CF0226FFAACF8AE290E0A7CF2091CF023A
:1013700026FFA3CF81E390E0A0CFCF3BD10508F6B5
:10138000C85AD0E0CC0FDD1FC653DE4F888199814B
:10139000946493CFC11530E2D30760F4C11541E0E6
:1013A000D40708F08ACFCE019065C03FD10508F080
:1013B00084CFA7CFC11580E4D80708F4A2CFC11508
:1013C00090E5D90708F061C0CE019F70906A75CF93
:1013D000C11526E5D20718F5C11535E5D30708F084
:1013E00086C0C11544E5D40708F07CC09C2F9695B3
:1013F0009695AE0143705527C115D34508F466C0D4
:1014000021E030E002C0220F331F4A95E2F740E2AC
:10141000949FC0011124822B932B9A684ECFC11543
:101420009AE5D90778F4C11529E5D20708F069C013
:10143000C11538E5D30708F464CF9C2F8827806F47
:10144000906A3BCFC1154BE5D40708F45ACFC115BC
:101450008CE5D80708F462C0CE0190568115904201
:1014600008F04FCF8D2F8F710E94B50890E0982F14
:10147000882788279F718C2B42C0C55AD0E0C9535A
:10148000DE4F888190E0906418CF9E01E4E03695AD
:101490002795EA95E1F723708C2F869586958370C2
:1014A00030E2839FC0011124922BC37021E030E011
:1014B00002C0220F331FCA95E2F7822B932B9C6840
:1014C000FCCE9C2F8827816F906AF7CE21E030E018
:1014D00002C0220F331F4A95E2F740E2949FC001F9
:1014E0001124EBCF9C2F8827846F906AE6CE8C2F37
:1014F0000E94B50890E0982F882788279F719062F6
:10150000DCCE8C2F8F700E94B50834E0D695C7953D
:101510003A95E1F7CF709C2F9069CFCECE019927F5
:101520009066CBCE89E390E0C8CE82EE90E0C5CE47
:1015300086EE90E0C2CEBF92CF92DF92EF92FF9202
:101540000F931F93CF93DF938C01C090FB02D09039
:10155000FC02E090FD02F090FE028091AE029091BC
:10156000AF02A091B002B091B102C82AD92AEA2AEA
:10157000FB2ACFE1D0E0BC2ED701C6010C2E04C05F
:10158000B695A795979587950A94D2F780FD0EC0DA
:10159000219788F7B12C8B2DDF91CF911F910F915F
:1015A000FF90EF90DF90CF90BF900895B8018C2FFF
:1015B0000E94F808019761F3EECFCF93DF93EC011F
:1015C0000E949B0ABE01DF91CF910C94F8080E9403
:1015D000DD0A292F2F7092959F7092509E3078F4DB
:1015E000E92FF0E0E85AFA4D0C94DD23803F19F022
:1015F00020F4883E20F481E00895843FE1F380E008
:101600000895883EC0F3813FD1F7F5CF822F8695AC
:1016100086958695089527982F98089526982E9850
:10162000089525982D98089556985E980895279ABC
:101630002F9A0895269A2E9A0895259A2D9A0895FC
:10164000CF92DF92EF92FF92CF936B017C010E94C9
:10165000FB06C82F0E94140B0E94110B0E940E0B58
:101660000E940B0BC150C73040F4EC2FF0E0EA5958
:10167000FA4D0C94DD230E941D0BC701B601CF91DA
:10168000FF90EF90DF90CF9008950E941D0B0E9475
:101690001A0BF3CF0E941D0B0E94170BEECF0E9476
:1016A0001D0B0E941A0BF8CF84B1807F84B985B1DD
:1016B000807F85B98AB1837F8AB98BB1837F8BB9EB
:1016C0003E984698089580B38C7080BB81B3836F39
:1016D00081BB0895CF9384E090E00E94E323C82F5C
:1016E00081E290E00E94E323982F8C2FCF91089500
:1016F000CF93DF9300D00F92CDB7DEB79091270341
:10170000943019F589837B836A8382E08093E900B2
:101710008FEF9091E800815095FD06C095ED9A9568
:10172000F1F700008111F5CF8091E80085FF0DC031
:1017300050E040E063E070E0CE0101960E94E603D5
:101740008091E8008E778093E8000F900F900F90C3
:10175000DF91CF910895CF93DF93EC010E94810533
:10176000823011F0843031F4BE0184E0DF91CF91FA
:101770000C94780BDF91CF910895BC0160587109EA
:1017800083E00C94780BCF93DF93EC010E948105EA
:10179000823011F08430F9F482E08093E9008FEF19
:1017A0009091E800815095FD06C095ED9A95F1F76E
:1017B00000008111F5CF8091E80085FF0CC050E05A
:1017C00040E066E070E0CE010E94E6038091E80010
:1017D0008E778093E800DF91CF910895CF93DF93C8
:1017E000EC010E948105823011F08430B9F58091BE
:1017F00012018823B1F18091CF0287FF32C060E2ED
:1018000082E08093E9008FEF9091E800815095FD90
:1018100006C095ED9A95F1F700008111F5CF809102
:10182000E80085FF1BC08091120170E050E040E0AD
:10183000811104C050E040E068E070E0CE010E94F9
:10184000E6038091E8008E778093E80080E2FE0155
:10185000A5E0B3E001900D928A95E1F7DF91CF9179
:10186000089568E081E0CDCFEF92FF920F931F9330
:10187000CF93DF930E94140B0E94110B0E940E0B5A
:101880000E940B0B88E8E82EF12C8FEF90E0F70117
:10189000918380830AE810E0F80191838083CCE88B
:1018A000D0E0998388830E941D0BFFEF20E782E040
:1018B000F15020408040E1F700C000000E941A0B68
:1018C0009FEFE0E7F2E09150E040F040E1F700C028
:1018D00000000E94170B2FEF80E792E0215080401C
:1018E0009040E1F700C000000E94110BEFEFF0E71D
:1018F00022E0E150F0402040E1F700C000000E94EB
:101900000E0B8FEF90E7E2E081509040E040E1F76E
:1019100000C000000E940B0B8091BD028770FFEF9A
:101920008F9FC00111249595879595958795992747
:10193000F70191838083F801918380839983888361
:101940000E94140B0E94110B0E940E0BDF91CF918D
:101950001F910F91FF90EF900C940B0B6091B902C7
:101960008CE090E00C94F7236FEE7EEF90E080E047
:101970000E94152460E082E090E00E94F72360E07E
:1019800083E090E00E94F7231092AE021092AF0223
:101990001092B0021092B10260E084E090E00E94E8
:1019A000F72360E081E290E00E94F72360E085E0A9
:1019B00090E00E94F72360E086E090E00E94F72329
:1019C0006FEF87E090E00E94F72340E050E0BA011B
:1019D00088E090E00E94092460E08DE090E00E94A1
:1019E000F72340E050E0BA0188E190E00E9409242A
:1019F00060E087E190E00E94F72340E050E0BA0108
:101A00008CE190E00E94092460E080E290E00E9476
:101A1000F7231092BD021092BE021092BF021092E4
:101A2000C00284E080618093BD024091BD0250916C
:101A3000BE026091BF027091C0028FE090E00E94F0
:101A4000092440E050E0BA0183E190E00C940924BD
:101A5000CF93C82F873070F58091060190910701D0
:101A6000892B89F564E670E080E40E94022390935C
:101A7000070180930601892BD1F464E670E082E1CE
:101A80000E945E239093070180930601892B79F4CD
:101A900081E090E001C0880FCA95EAF764E670E043
:101AA00080950E945E239093070180930601CF9159
:101AB0000C94B1238A30B9F040F4883071F0893049
:101AC00079F0209A2898CF9108958C3091F070F099
:101AD0008D30B9F73E9A4698F6CF219A2998F3CFE0
:101AE000229A2A98F0CF239A2B98EDCF529A5A989F
:101AF000EACF539A5B98E7CF80E290E0909307019A
:101B00008093060180911E0281110EC00E94FC226A
:101B100081E080931E022FEF83ED90E321508040FF
:101B20009040E1F700C0000064E670E080E40E94AD
:101B300002239093070180930601892B09F04EC080
:101B400064E670E080E00E945E239093070180933A
:101B50000601892B09F042C064E670E080E00E9433
:101B60005E239093070180930601892BB9F564E603
:101B700070E08FE30E945E2390930701809306013B
:101B8000892B61F50E94B12364E670E080E40E9435
:101B900002239093070180930601892BF9F464E6F0
:101BA00070E08CE00E945E23909307018093060111
:101BB000892BA1F464E670E080E00E945E2390939C
:101BC000070180930601892B49F464E670E08FE3F6
:101BD0000E945E2390930701809306010E94B12327
:101BE000809106010895CF93873008F040C080911E
:101BF000060190910701C0E0892B71F464E670E062
:101C000080E40E9402239093070180930601892BB0
:101C100031F0C0E00E94B1238C2FCF91089564E68B
:101C200070E083E10E945E23909307018093060198
:101C3000892B79F764E670E081E40E940223909397
:101C4000070180930601892B21F784E690E00E942A
:101C50008D2397FF05C09093070180930601D9CF8C
:101C6000C82FC0951092070110920601D3CFCFB1B3
:101C70008FB1869586958C73C3708C2BC82FC095B9
:101C8000CBCF78941F921FB61F9211248F939F93EE
:101C9000AF93BF938091B2029091B302A091B4022E
:101CA000B091B5020196A11DB11D8093B20290932F
:101CB000B302A093B402B093B502BF91AF919F91CC
:101CC0008F911F901FBE1F9018952FB7F894809189
:101CD000B2029091B302A091B402B091B5022FBFAD
:101CE0000895E091D102F091D202309749F082E05C
:101CF0008093E2020480F581E02D82EE92E0099566
:101D00000E94650E9093EA028093E9020895109272
:101D1000AB021092AA020E944E0786E0E2EEF2E0C9
:101D2000DF011D928A95E9F71092E8021092B6023F
:101D30000E94710E90E080E00E94930890E080E0A5
:101D40000C947D08CF92DF92EF92FF92CF93DF93B6
:101D500000D000D0CDB7DEB70E94200B6B017C0114
:101D60008091FF02882321F080910003811115C02A
:101D7000C092FB02D092FC02E092FD02F092FE02C1
:101D80000E94870E0F900F900F900F90DF91CF91D0
:101D9000FF90EF90DF90CF900895198282E08A83C0
:101DA000C701B6010E94FB068B838EEF8C8364E033
:101DB000CE0101960E948C05DBCF0F931F9341E06B
:101DC00050E060E070E004C0440F551F661F771FAD
:101DD0008A95D2F7CB01BA01609570958095909560
:101DE0000091FB021091FC022091FD023091FE0255
:101DF00060237123822393231F910F910C94A20ED1
:101E00009091A902809589238093A902282F277099
:101E100071F4282F082E000C330B9217130639F09B
:101E20008595859585950E94DD0E1092A9020895ED
:101E30000F931F9341E050E060E070E004C0440F56
:101E4000551F661F771F8A95D2F78091FB029091EC
:101E5000FC02A091FD02B091FE028A019B01082BB9
:101E6000192B2A2B3B2BC901B8011F910F910C9400
:101E7000A20E6093AE027093AF028093B002909373
:101E8000B1020C94870E1092AC0280911201EAEF1D
:101E9000F1E0882359F08091CF0287FF07C08EE1DF
:101EA000DF011D928A95E9F70C94870E86E0F8CF42
:101EB0001F93CF93DF93CDB7DEB7AA970FB6F894F1
:101EC000DEBF0FBECDBF89E293E02091F100FC019F
:101ED0002193CF01F3E081339F07B9F780912A0363
:101EE000893009F444C018F5823009F4B7C0833052
:101EF00009F46CC0813031F580912903813A11F5E4
:101F00008091E800877F8093E80080912D03909175
:101F10002E03892B41F560E285E093E070E00E949A
:101F200023058091E8008B778093E8000BC08B300D
:101F300009F469C008F481C0823409F4A0C0853472
:101F400009F4BAC08091E80083FF65C2809129033B
:101F500090912A039A3008F05EC2E92FF0E0E3592D
:101F6000FA4D0C94DD2360E090E080E0D7CF8091C3
:101F70002903813239F780912D0390912E03029726
:101F800008F78091E800877F8093E8008091E8005F
:101F900082FF17C09091F3008091F200029729F41C
:101FA0008091F1008B7F813021F48091F10080934A
:101FB00004038091E8008B778093E8000E9412046C
:101FC000C1CF809127038111E1CFBCCF809129033C
:101FD000813A09F0B7CF80912D0390912E03892B80
:101FE00009F0B0CF8091E800877F8093E80080916E
:101FF000E80080FFFCCF809112018093F100809176
:10200000E8008E77D9CF80912903813209F09ACFE9
:1020100080912D0390912E03892B09F093CF80910D
:10202000E800877F8093E8000E94120480912B03D0
:10203000809312010E94430F85CF80912903813242
:1020400009F080CF8091E800877F8093E8000E94AC
:10205000120480912C038093030374CF8091290391
:10206000813A09F06FCF8091E800877F8093E80084
:102070008091E80080FFFCCF80910303BECF809168
:102080002903803C09F05ECF80912D0390912E03AF
:10209000029739F580912B0390912C03892B09F538
:1020A0008091E800877F8093E8006BE170E088E032
:1020B00095E00E94C40482CF80912903803C09F0FE
:1020C00041CF80912D0390912E03079751F4809179
:1020D000E800877F8093E80062EB70E086E594E09B
:1020E000E8CF8091EB0080628093EB002BCF8038AB
:1020F00099F0823809F08FC180912D038F7087305D
:1021000008F089C18093E9008091EB0085FB882766
:1021100080F91092E90006C0809125039091260372
:10212000911182609091E800977F9093E8008093EE
:10213000F1001092F1008091E8008E7768C1882349
:1021400009F456C1823009F066C180912B038111D8
:1021500059C180912D038F702FEF280F263008F082
:102160005AC18093E9002091EB0020FF4BC19330CE
:1021700031F48091EB0080628093EB0043C1909139
:10218000EB0090619093EB0021E030E001C0220F62
:102190008A95EAF72093EA001092EA008091EB001A
:1021A0008860EACF811137C110912B031F7780918E
:1021B000E3008078812B8093E3008091E800877FA3
:1021C0008093E8000E9412048091E80080FFFCCF19
:1021D0008091E30080688093E30082E0111183E046
:1021E0008093270318C18058823008F014C1809171
:1021F0002B0390912C038C3D23E09207A1F583E003
:102200008A838AE289834FB7F894DE01139620E02F
:102210003EE051E2E32FF0E050935700E49120FFBD
:1022200003C0E295EF703F5FEF708E2F90E0EA30D1
:10223000C0F0C7968D939D932F5F243159F74FBF00
:102240008091E800877F8093E8006AE270E0CE0129
:1022500001960E9423058091E8008B778093E80027
:10226000DAC0C096E7CF40912D0350912E03292F5D
:1022700033272330310569F1A0F42130310509F409
:102280006CC062E570E084E296E02230310509F02E
:10229000C2C02091E800277F2093E8000E94C40478
:1022A000DACF2132310509F440C02232310509F478
:1022B00048C02F30310509F0AEC0E6EBF6E0E491FE
:1022C0006E2F70E084EB96E06115710509F4A3C0F0
:1022D000E0CF992781309105C1F0009771F08230ED
:1022E0009105D9F0039709F096C0E8E8F6E0E4918B
:1022F0006E2F70E088E896E0E7CFE0EBF6E0E4913F
:102300006E2F70E080EB96E0DFCFE6EAF6E0E49136
:102310006E2F70E086EA96E0D7CFEEE8F6E0E49123
:102320006E2F70E08EE896E0CFCF41155105D1F0C9
:102330004130510509F06FC069E070E08FE496E02C
:10234000A8CF4115510599F04130510509F063C0FE
:1023500060EC70E084E295E09CCF62E170E086E79B
:1023600096E097CF69E070E086E396E092CF60E474
:1023700070E084EE95E08DCF803809F04CC08091FC
:10238000E800877F8093E800809128038093F10024
:10239000D2CE811140C010912B031230E0F5809114
:1023A000E800877F8093E800109328030E941204BE
:1023B000112311F084E005C08091E30087FDFACF7E
:1023C00081E08093270342E061EC81E00E943104C8
:1023D00042E261EC82E00E94310442E361EC83E07E
:1023E0000E94310442E360EC84E00E94310413C097
:1023F00080912B03813079F481E0933009F080E003
:10240000809326031092E9008091E800877F8093F3
:10241000E8000E9412048091E80083FF0AC08091C6
:10242000E800877F8093E8008091EB0080628093D2
:10243000EB00AA960FB6F894DEBF0FBECDBFDF91BA
:10244000CF911F9108951F920F920FB60F921124F2
:102450002F933F934F935F936F937F938F939F93AC
:10246000AF93BF93CF93DF93EF93FF93D091E900A6
:10247000DF708091EC00C82FC17080FDC0E8109221
:10248000E9008091F000877F8093F00078940E94AB
:10249000580F1092E9008091F00088608093F0005E
:1024A000CD2BCF70C093E900FF91EF91DF91CF91D9
:1024B000BF91AF919F918F917F916F915F914F915C
:1024C0003F912F910F900FBE0F901F9018951F9264
:1024D0000F920FB60F9211242F933F934F935F9358
:1024E0006F937F938F939F93AF93BF93EF93FF93DC
:1024F0008091E10082FF09C08091E20082FF05C067
:102500008091E1008B7F8093E1008091DA0080FF71
:1025100024C08091D80080FF20C08091DA008E7F97
:102520008093DA008091D90080FF9FC080E189BD4F
:1025300082E189BD09B400FEFDCF81E080932703CD
:1025400080910203811109C00E9496030E946304D6
:102550008091E20084608093E2008091E10080FF3E
:1025600017C08091E20080FF13C08091E2008E7F4F
:102570008093E2008091E20080618093E20080918C
:10258000D80080628093D80019BC85E0809327032F
:102590008091E10084FF2DC08091E20084FF29C07A
:1025A00080E189BD82E189BD89B5982F917080FF56
:1025B000FBCF8091D8008F7D8093D8008091E1007F
:1025C0008F7E8093E1008091E2008F7E8093E20015
:1025D0008091E20081608093E2008091280388234B
:1025E00009F449C084E0809327030E94430F0E94AE
:1025F000A9088091E10083FF27C08091E20083FF5A
:1026000023C08091E100877F8093E10082E0809386
:102610002703109228038091E1008E7F8093E100D0
:102620008091E2008E7F8093E2008091E2008061E1
:102630008093E20042E060E080E00E9431048091FB
:10264000F00088608093F000FF91EF91BF91AF910F
:102650009F918F917F916F915F914F913F912F91BA
:102660000F900FBE0F901F90189519BC1092270362
:102670001092020372CF8091E30087FD93E0909364
:102680002703B3CF882309F459C0823871F40E941C
:10269000A90881FF53C089E30E94BE070E944E072C
:1026A00089E30E9493070C944E07833859F40E94E3
:1026B000A90880FF43C083E50E94BE070E944E0721
:1026C00083E5EFCF843859F40E94A90882FF36C011
:1026D00087E40E94BE070E944E0787E4E2CF9CEF8A
:1026E000980F913AF0F290E2980F983088F4877042
:1026F00021E030E0A90102C0440F551F8A95E2F79E
:10270000CA0180959091AC0289238093AC02CBCF13
:102710009BE5980F933020F490E080E00C949308B0
:1027200098E5980F973120F490E080E00C947D08B4
:10273000803F20F00E94A4050C94710E0895882318
:1027400009F47BC08238B9F40E94A90881FD75C0E4
:1027500089E30E94BE070E944E072FEF81EE94E0AE
:10276000215080409040E1F700C0000089E30E94C2
:1027700093070C944E078338A1F40E94A90880FDAA
:102780005CC083E50E94BE070E944E072FEF81EEDA
:1027900094E0215080409040E1F700C0000083E5C4
:1027A000E6CF8438A1F40E94A90882FD46C087E4E0
:1027B0000E94BE070E944E072FEF81EE94E0215049
:1027C00080409040E1F700C0000087E4D0CF9CEF4C
:1027D000980F913A18F40E94BE07CBCF90E2980F61
:1027E000983068F4877021E030E001C0220F8A95AC
:1027F000EAF78091AC02822B8093AC02BACFEBE572
:10280000E80FE33038F4F0E0E953FE4F808190E0C8
:102810000C949308E8E5E80FE73148F4F0E0EE0F98
:10282000FF1FE653FE4F808191810C947D08803F0D
:1028300020F00E9469060C94710E0895CF93C82F62
:102840000E949F13C93349F42FEF87EE93E0215084
:1028500080409040E1F700C000008C2FCF910C9495
:102860004213CF92DF92EF92FF920F931F93CF9379
:10287000DF93EC018AE0C82EFE018491882309F4DD
:1028800083C0813009F040C031968491813051F489
:102890002296FE011491812F0E949F13812F0E9486
:1028A000421307C0823039F42296FE0184910E94BF
:1028B0009F132196E1CF833021F42296FE0184916B
:1028C000EECF843009F05EC02296FE01249190E0A4
:1028D00080E0FE0131962053330B2A30310548F059
:1028E000019738F3EFE9FFE03197F1F700C00000FE
:1028F000F7CFC89EA001C99E500D1124C901840FB5
:10290000951F2491EF01E5CFE82FF0E0E453FF4F4E
:10291000D490082F06950695069510E0F801E4542A
:10292000FF4FE4908770F12C082E02C0F594E794D5
:102930000A94E2F721E0E222FF2404551F4FF80138
:10294000049110E002C0159507958A95E2F7017091
:102950001127E114F10419F081EE0E949F13011573
:10296000110519F086EE0E949F138D2D0E941E14F2
:10297000012B19F086EE0E94421381EEEF2809F434
:1029800098CF8DCFEF0195CFDF91CF911F910F9110
:10299000FF90EF90DF90CF9008950F931F93CF9308
:1029A000DF93C62FD42F022FFC0182818823A1F050
:1029B000609334020E94650E9093200280931F0260
:1029C000C77081E001C0880FCA95EAF7DF91CF9107
:1029D0001F910F910C94730810913402161335C097
:1029E00080911F02909120020E94D106883C91059F
:1029F00060F5C0E2CD0F1D17B9F080E2810F88307D
:102A000040F4177081E001C0880F1A95EAF70E9420
:102A10006808C83048F481E09D2F977001C0880F86
:102A20009A95EAF70E947308802F0E941E14C830FE
:102A300098F4D77081E001C0880FDA95EAF7DF914A
:102A4000CF911F910F910C946808C77081E001C06D
:102A5000880FCA95EAF7F3CFDF91CF911F910F91BD
:102A600008954F925F926F927F928F929F92AF9252
:102A7000BF92CF92DF92EF92FF920F931F93CF936B
:102A8000DF9300D000D00F92CDB7DEB76C01FC0110
:102A900083819481892B39F01081F180812F8F21DE
:102AA0008F3F09F047C60F900F900F900F900F9037
:102AB000DF91CF911F910F91FF90EF90DF90CF901A
:102AC000BF90AF909F908F907F906F905F904F904E
:102AD00008950E949B0A082F682F89819A810E947D
:102AE0001B08E12FF0E026E0F29EE00DF11D11241D
:102AF00034E5039FE00DF11D1124EE0FFF1FE45B91
:102B0000FE4F059114918091FF02882321F080915E
:102B100000038111FBC5F60182810930FDE51F0725
:102B200009F0F1C08823C9F18091BD0291E0980FAE
:102B30009770887F953008F4892B8093BD0280912F
:102B4000BD0287702FEF829FC00111249595879554
:102B50009595879599279093890080938800909305
:102B60008B0080938A0090938D0080938C0040911D
:102B7000BD025091BE026091BF027091C0028FE011
:102B800090E00E9409246091FB027091FC02809108
:102B9000FD029091FE020E94200BF60182818823A3
:102BA00089F0033EFCE51F0709F40AC108F0F4C0F0
:102BB000013E3CE5130709F4FCC0023E8CE5180712
:102BC00009F4FCC017FF29C1F6018281882309F4AA
:102BD0004DC08091AC02809333021092AC02809180
:102BE000B902813009F4F4C0882309F4EDC08230C1
:102BF00009F4FBC0843009F4FFC08FE39CE901971E
:102C0000F1F700C000005801E894B7F84CE0E42E5A
:102C1000F12C95010E2C02C0369527950A94E2F707
:102C20002F7087E290E031F0822F90E02A3008F098
:102C3000E8C04D960E941E1494E0E91AF108ECEFEA
:102C4000EE16EFEFFE0629F78091B902813009F404
:102C5000DEC0882309F4D7C0823009F4D4C08430A0
:102C600009F4D9C0809133028093AC02F6018281CD
:102C7000882309F470C5109234020230FCE51F0766
:102C800008F475C506312CE5120738F098012A5F63
:102C90003C452730310508F06AC50E946A0B9093C5
:102CA000D0028093CF020F303CE5130709F4AAC18C
:102CB00008F024C108309CE5190709F48DC108F01B
:102CC000F9C00430FCE51F0709F47AC108F0DFC041
:102CD00002303CE5130709F46BC103301C4509F4CD
:102CE0006BC16091CF021091D00284E090E00E940D
:102CF000F723612F81E290E00E94F7230E94430FA7
:102D0000D2CE81E109C5F801EC50FD45EA30F1056C
:102D100008F043CFE958FA4D0C94DD23882309F4D9
:102D20003CCF86E494E00E94311437CF882309F425
:102D300034CF8CE394E0F7CF882309F42ECF82E3DD
:102D400094E0F1CF882309F428CF88E294E0EBCF18
:102D5000882309F422CF8EE194E0E5CF882309F49B
:102D60001CCF84E194E0DFCF882309F416CF8AE0FA
:102D700094E0D9CF882309F410CF80E094E0D3CF3A
:102D8000882309F40ACF86EF93E0CDCF882309F496
:102D900004CF8CEE93E0C7CF043E9CE5190791F079
:102DA00084E0053EECE51E0709F00CCF8093B902E4
:102DB00002C01092B9020E94AE0C04CF81E0F6CF9F
:102DC00082E0F4CF83E0F2CF82EE0E949F1315CF12
:102DD00083E00E945E0888E10E949F1388E10E94C0
:102DE000421383E00E94530808CF82EE0E949F1393
:102DF00087E50E941E1401CF86EE0E941E1488E112
:102E0000F8CF069717CF82EE0E9442132BCF8CE2A9
:102E10000E941E1427CF88E2FBCF033FFCE51F076B
:102E200039F1A0F4083D3CE51307F1F0093D8CE5CC
:102E3000180751F1073D9CE5190709F017CF26E265
:102E400041EE61EEC6010E94CD142DCE053FECE5AA
:102E50001E07B1F088F0063F2CE5120709F006CFF7
:102E600027E245EE66EEEECF27E245EE65EEEACFCD
:102E700026E241EE60EEE6CF27E245EE64EEE2CFD9
:102E800026E241EE62EEDECF28E241E0EFCF809114
:102E9000CF02806106309CE5190709F447C0809194
:102EA000CF02886007301C4508F440C08091CF02F3
:102EB00080623CC00B30FCE51F0709F49BC068F43E
:102EC00009303CE5130709F48BC00A301C4509F0B2
:102ED00008CF8091CF028C6029C08091CF028B7F78
:102EE0000D309CE5190711F18091CF028D7F0E30D6
:102EF0001C45E0F08091CF02877F18C00A3FFCE5B7
:102F00001F0709F461C060F502313CE5130709F4BD
:102F100081C078F400319CE5190709F477C08091ED
:102F2000CF028F7B01311C4509F0DBCE8093CF02AD
:102F3000D8CE0431FCE51F0709F47AC008F470C04C
:102F400005311C4509F0CDCE8091CF0282FB992737
:102F500090F921E0922790FB82F990FB83F9E6CF6C
:102F60000D3F8CE5180709F449C070F40B3FECE500
:102F70001E0771F18091D0028E7F0C3F1C4509F035
:102F8000B0CE8093D002ADCE0F3F2CE5120709F4EE
:102F90004BC060F101151D4509F0A3CE8091D00210
:102FA000982F909591708E7F892B90FB81F9E9CFB6
:102FB0008091CF028160BACF8091CF028260B6CF7C
:102FC0008091CF028460B2CF8091D0028160D9CF4E
:102FD0008091D0028260D5CF8091CF028064A6CF4D
:102FE0000E94430F8091CF028068A0CF8091D002D1
:102FF0008360C7CF8091CF028E7F98CF8091D0021F
:103000008D7FBFCF8091CF028F7E90CF8091CF02F6
:103010008F7D8CCF0E94430F8091CF028F7786CF18
:103020008091CF02837F82CF8091D0028C7FA9CF05
:103030000E94430F9091CF02892F97FB87F9805808
:1030400075CF85E3A4C385E38FC3882309F455C0F6
:103050000E3D9CE5190709F446C00830EDE51E0752
:1030600009F444C001151C4509F047C00E94430FF4
:103070002FEF34E38CE0215030408040E1F700C076
:103080000000F89481E08093E00080E28093D80013
:103090001092C900EFE1FEE43197F1F700C00000A3
:1030A0001DBA109268001CBC10BE1FBA10927A00A4
:1030B00010926E0010926F001092710010927200C8
:1030C0001092C9001092BC0014B817B81AB81DB8F5
:1030D00010BA1092BC0015B818B81BB81EB811BAB7
:1030E0000C94003FE0CC0E94B40CDDCC8091010335
:1030F00091E0892780930103D6CCF60100811181EC
:103100008823C9F1C8010E949B0AF82E682FC801C4
:103110000E941B08B8018F2D0E94F8088C01B82E60
:10312000F601E580E2943FE0E322F280F110109294
:10313000AB028091A902877079F0FF2069F080E2EC
:10314000800F883048F082E00E94000F8091A90231
:103150008770AA24A3948111A12C912E92942FE020
:103160009222FBE0F91508F440C0E92DF0E0EF579A
:10317000FA4D0C94DD23C8010E94F207F82ECACF45
:10318000212F2F70E22E107F19F0E29490EFE922A8
:10319000FF20C9F0EE2069F080E2800F883010F047
:1031A000B1100BC08091AC02E82AE092AC020E9400
:1031B0004E07802F0E949F1318C08091AB02E82A0F
:1031C000E092AB02F4CF802F0E944213EE2069F010
:1031D000E094005E083010F0B11028C08091AC027D
:1031E000E822E092AC020E944E07292D2850330BB2
:1031F0002430310510F40E94A908AA2009F453CC08
:103200008091A90280FD4FCCF601128285958595AB
:1032100085950E94180FC6010E9431158091A90260
:103220008595859585950E94DD0E3DCC8091AB02FC
:10323000E822E092AB02D7CF312F3F70832E107F70
:10324000103219F0829480EF8822802FBB2041F049
:1032500091E0B91631F1FF2079F1EE2041F1A9CFCB
:10326000FF2091F09091AD02892F8829E11003C0D1
:103270000E947308BACFE1E0EE12FACF981709F472
:10328000B4CF8093AD02B1CFE11006C00E944807D1
:10329000882D0E946808A9CFF1E0EF1609F4A5CFA8
:1032A000F5CFFF2031F021E02E1508F49ECF882DB8
:1032B000DFCFE1109ACFECCFEE2051F3893349F400
:1032C0003FEF87EE93E0315080409040E1F700C03F
:1032D0000000802F0E94421388CF812F869586950B
:1032E000837061F0813009F080CFC8019370F110D4
:1032F00002C090E080E00E947D0877CFC801937003
:10330000F11002C090E080E00E9493086ECFFF2091
:1033100009F1053F99F0063FB9F0043F49F4809167
:103320003602909137028160909337028093360283
:10333000802F0E9469060E94710E57CF809136023D
:10334000909137028260F0CF8091360290913702DF
:103350008460EACF053F89F0063FA9F0043F49F4B5
:1033600080913602909137028E7F9093370280933E
:103370003602802F0E94A405DECF80913602909104
:1033800037028D7FF2CF80913602909137028B7F8A
:10339000ECCF812F837009F066C0F11026CF802F0B
:1033A000829586958770880F880F602F6F70462EE4
:1033B000512C712C612C082E04C0440C551C661C29
:1033C000771C0A94D2F740E050E0BA0104FF0FC026
:1033D0004FE050E060E070E004C0440F551F661FEE
:1033E000771F8A95D2F74095509560957095812FFB
:1033F000869586958370823019F1D8F40091AE02DB
:103400001091AF022091B0023091B102813069F089
:103410004429552966297729CB01BA0160237123F4
:10342000822393230E94390FE0CE402A512A622A38
:10343000732ACB01BA016429752986299729F2CF0D
:1034400044295529662977290091AE021091AF02CF
:103450002091B0023091B102CB01BA0160277127EF
:1034600082279327DFCF8695FF2011F0812F81706F
:10347000882309F4BACE802F829586958770880FAD
:10348000880F602F6F70462E512C712C612C082EE6
:1034900004C0440C551C661C771C0A94D2F740E00B
:1034A00050E0BA0104FF0FC04FE050E060E070E070
:1034B00004C0440F551F661F771F8A95D2F74095A9
:1034C000509560957095812F869586958370823092
:1034D00019F1D8F40091FB021091FC022091FD0239
:1034E0003091FE02813069F04429552966297729F7
:1034F000CB01BA0160237123822393230E94A20E81
:1035000074CE402A512A622A732ACB01BA01642957
:10351000752986299729F2CF4429552966297729C3
:103520000091FB021091FC022091FD023091FE02FD
:10353000CB01BA016027712782279327DFCF1F7045
:10354000FF2029F0812F0E94180F802F91CE802F0D
:103550000E946808812F0E94DD0E47CE802FE2EF87
:10356000BE1609F44EC0EB1578F0F0EFBF1619F156
:1035700021EFB21609F43DC0FF2009F465C0E11047
:1035800018CE812F8F713AC033EFB31609F43EC0C5
:1035900094EFB912F1CFFF2009F44BC01F71812FB6
:1035A0000E94180FF8E01F9FC001112483608093D0
:1035B000A902812F23C0FF20B9F0E11016CE1F71A0
:1035C00061E070E080E090E004C0660F771F881F24
:1035D000991F1A95D2F70091FB021091FC022091DD
:1035E000FD023091FE02A6CFE1E0EE1508F4FDCD1C
:1035F000E6CF812F8F71FF2009F4ADCF0E94180F05
:10360000F4CD812F8F71FF20C9F3A5CF60E070E06A
:10361000CB01FF2009F472CF1F7161E070E080E000
:1036200090E004C0660F771F881F991F1A95D2F784
:1036300065CF81E00E94000F21E02E1508F0D5CD66
:1036400082E00E94000FD1CDE11038CE812F8F7122
:1036500082CFE2EFBE16D1F1EB1500F1F0EFBF160D
:1036600049F121EFB216D1F180913802EE2009F430
:1036700041C0882341F08091390291E089278093ED
:10368000390210923802802FF11094CD0E9442131B
:1036900086E0F60111928A95E9F7A7CD34EFB316CB
:1036A000C1F0B31688F085EFB812DECFF1109DCDD2
:1036B00081E007C0FF2009F498CD8091390291E0A4
:1036C00089278093390291CD81E0F826F092390262
:1036D0008CCDF1108ACD1092390287CDFF2039F0C0
:1036E00080913802882349F3109238027ECDEE2073
:1036F00021F37BCD882309F478CDF11076CD80912C
:10370000390291E0892780933902EECFF601828158
:1037100019828111F6CA82E18A83F60180818B8346
:1037200081818C838EEF8D8365E0CE0101960E94AE
:103730008C05F1C985E0DE01119601900D928A9504
:10374000E1F7F601228189819A812111C2C90E9483
:10375000F207082FC6C906311C4509F0CECC80916E
:103760003502811170CC89E20E94930712C00631A4
:103770002CE5120709F069CC8091AC028A7A91E0BD
:1037800009F490E09093350281115BCC89E20E94AC
:10379000BE070E944E0787C91F93CF93DF93809186
:1037A0003F02807FC1F480913C028823A1F0809188
:1037B0007102C091400260913A0270913B024091C7
:1037C0003D0250913E02D62FD723DA01A095B09545
:1037D00016E0C81304C0DF91CF911F91089590E0C7
:1037E0004115510511F0DF3F31F401968770F1CF9B
:1037F0002A0F3B1F17C0189FF001199FF00D1124CD
:10380000EF5BFD4F21812713F0CF20812613EDCFF1
:1038100022812111EACF238134812417350740F317
:10382000241B350B283C310500F720913F022F70F7
:10383000206120933F0226E0289FF001299FF00D90
:103840001124EA5BFD4F80818F70806180838AE361
:1038500092E00E943115DF91CF911F910C9449089D
:10386000BF92CF92DF92EF92FF920F931F93CF936D
:10387000DF93CDB7DEB761970FB6F894DEBF0FBE0A
:10388000CDBF8C0185E0F801DE011D9601900D92FF
:103890008A95E1F7D8012C9111963C9111971296D7
:1038A000EC90129780913D0290913E02009709F4AE
:1038B00063C140913A0250913B02642F65236F3FF0
:1038C00009F45AC11396CD90DC90B0903C02BB2015
:1038D00009F413C1C816D906C0F1F601E81BF90BAB
:1038E000CF01FF24F394883C910508F0F12C8091DE
:1038F0003F02982F907FFF2009F4C1C091117DC035
:10390000FE2C531327C0421325C0E11023C08F7033
:10391000806180933F028AE392E00E94311580919A
:103920003F02D80115968C938F2D61960FB6F894AF
:10393000DEBF0FBECDBFDF91CF911F910F91FF90E2
:10394000EF90DF90CF90BF900895809590958C0D6B
:103950009D1DC7CFCD2829F0822F83238F3F09F0EB
:1039600035C180E0B82FB170DB2E80FF3CC0809164
:1039700071024091400256E0841315C02D873E87A6
:103980008D859E850E94DD0A292F22952F70223079
:10399000F0F0243018F59F70F1F0F8019581907FD8
:1039A000D1F4D12C1EC090E0589FF001599FF00D2A
:1039B0001124EF5BFD4F6181361306C06081261331
:1039C00003C06281E6120FC001968770D5CF9F7049
:1039D00011F0882331F3805E883018F3C8010E940B
:1039E0003115FD2CA1CFEE2009F49ECF80913F022E
:1039F000816080933F02F12C97CF531313C0421381
:103A000011C0E1100FC0D80115968C93C8010E9417
:103A1000311586E0F801AAE3B2E001900D928A9593
:103A2000E1F782CF2D873E878D859E850E94E70A2C
:103A3000882309F1EE20F9F080913F02803270F086
:103A400020913A0230913B0238872F831986DB861A
:103A5000CA868C87CE0107960E94311586E0F80150
:103A6000AAE3B2E001900D928A95E1F70E94CC1B87
:103A7000FF24F39459CFC8010E943115F9CF911159
:103A80000CC08AE392E00E94311586E0EAE3F2E09E
:103A9000DF011D928A95E9F747CF531312C04213F5
:103AA00010C0E1100EC0F8018583C8010E943115D5
:103AB000EAE3F2E086E0DF011D928A95E9F7FB2C4C
:103AC00033CF2D873E878D859E850E94E70A882308
:103AD00091F2EE2081F280913F02803208F4BECF55
:103AE00020913A0230913B023A8329831B82DD8286
:103AF000CC828E83CE010196AFCFC816D90640F096
:103B0000C81AD90AB8ECCB16D10448F0F12CBDCFB5
:103B1000809590958C0D9D1D883C9105B8F7FE2CE5
:103B2000EE2009F4A8CF531316C0421314C080919D
:103B30003F0280FD6ECF982F907F09F46ACFF80185
:103B40008583903F09F462CF982F907F905F8F70AC
:103B5000892B85835BCF2D873E878D859E850E942F
:103B6000E70A81117BCF80913F02816080933F0201
:103B7000C8010E943115D8CEEE2009F47CCF2D87E4
:103B80003E878D859E850E94E70AF82E882309F4DA
:103B900072CF86E0F801AAE3B2E001900D928A9517
:103BA000E1F780913A0290913B020E94DD0A9295E2
:103BB0009F70963041F48091390291E0892780937B
:103BC0003902909338020E94CC1BAECE81E08E2544
:103BD000C9CE1F93CF93DF93CDB7DEB767970FB6EC
:103BE000F894DEBF0FBECDBF6D8B7E8B8F8B8E8921
:103BF0009F89892BE1F0852F84238F3F09F098C09E
:103C00005FEF4FEF14C030913902332309F44EC0F7
:103C1000E42FF0E036E0539FE00DF11D1124EE0F8C
:103C2000FF1FE15EFE4F40815181822B8C931A8AE7
:103C3000198A4B8B5C8B85E0FE017396DE011D9625
:103C400001900D928A95E1F786E0FE013D96DE0136
:103C5000179601900D928A95E1F7CE0107960E9482
:103C6000301C811112C086E0FE013796DE011196EC
:103C700001900D928A95E1F78A859B85892B29F021
:103C80008F81988589238F3FC9F516E08091710255
:103C900090914002891320C067960FB6F894DEBF5A
:103CA0000FBECDBFDF91CF911F91089580958223E4
:103CB000BDCF96E0929FD001939FB00D1124AF5BD2
:103CC000BD4FFE01319601900D929A95E1F78093D8
:103CD00040020E944908D9CF819FC00111248F5B07
:103CE0009D4F0E94301C8823B9F28091710290E0B0
:103CF00001968770992780937102C8CF2091400266
:103D000030E0C901019687709927409171024817E8
:103D1000190679F60E94430F109240021092710228
:103D200086E0EAE3F2E0DF011D928A95E9F7ADCF84
:103D300081E090E0042E01C0880F0A94EAF7A52FD5
:103D4000B0E0AB5DBD4F2C913D8931115CCF322F7E
:103D500038235BCF8F929F92AF92BF92CF92DF9228
:103D6000EF92FF920F931F93CF93DF938091060101
:103D700090910701892B91F080911D028F5F8093B4
:103D80001D0281110BC00E947C0D90E090930701F1
:103D900080930601892B11F40E94340C01EC12E08F
:103DA0007801C0E0912C37E0C32ECC0E8C2F0E94FE
:103DB000280D8C2D0E94280D8C2F0E94F30DD70109
:103DC0009D917D01D12C891729F0FD0131978083C8
:103DD000DD24D3948C2D0E94F30DF7019681891771
:103DE00009F465C0868381E08D29982A0E94540BCE
:103DF000CF5FC730C1F60E94650E6AEF70E00E9487
:103E0000B523882ED0911902DD2309F4A2C01092A7
:103E10001902E091B702F091B8027F012EE0E20EA4
:103E2000F11C40E0CBEF2AEFC22ED12C51915B3F29
:103E300081F0652F70E0282D392F8517D0F1261BD2
:103E4000370B2E313105DCF19F0121503109D901A9
:103E5000CC93EE15FF0551F740931902911002C063
:103E6000411179C010921802A091B702B091B80226
:103E700020911902E4EDF2E090E04191E8013991DE
:103E80008E01431751F04C914B3FD9F48C93AF0105
:103E900041505109EA01388321E01196D2E0E23E17
:103EA000FD0759F7209319029093180258C080E03B
:103EB0009BCFD601A61BB70B2A0F3B1FC2CF4D2F9E
:103EC000C8CF91E0EACF9170892B09F459C0809155
:103ED0001B0290911C028130984780F010920103E0
:103EE0006091FB027091FC028091FD029091FE02B4
:103EF0000E94200B10921C0210921B0280911B0248
:103F000090911C02019690931C0280931B02892DB4
:103F1000DF91CF911F910F91FF90EF90DF90CF90A5
:103F2000BF90AF909F908F9008950E941A0B2EC063
:103F3000892B69F310921C0210921B026091FB0204
:103F40007091FC028091FD029091FE020E94200B74
:103F5000DECF911087CF90911802911183CF80917D
:103F60001B0290911C0220910103222309F3009768
:103F700009F0A9CF0E94110B0E940E0B0E940B0B9F
:103F8000C0911A02CC2389F20E940E0B81E0C8274F
:103F9000C0931A029CCFCDB7DEB7C955D1090FB671
:103FA000F894DEBF0FBECDBF84B7877F84BF0FB646
:103FB000F894A895809160008861809360001092C9
:103FC00060000FBE80E890E00FB6F8948093610027
:103FD000909361000FBE85B7806885BF85B7806804
:103FE00085BF0E9496030E9463048091E200846072
:103FF0008093E2007894809127038823A1F01091A8
:10400000E9001F709091EC00892F817090FD80E88D
:10401000182B1092E9008091E80083FD0E94580F50
:104020001F701093E90082E084BD93E095BD9AEF84
:1040300097BD80936E000E947C0D90E090930701E5
:10404000809306010E94540B0E94630BA1ECB2E026
:1040500082EE92E0E4EDF2E011921D928E179F073E
:10406000D9F78EE090E00E942B248093B7029093C2
:10407000B802FC010E962BEF2193E817F907E1F740
:1040800090E080E00E94F1238F3E9E4F11F00E944D
:10409000B40C8CE090E00E94E32390E0B0E0A0E05C
:1040A0008093B9029093BA02A093BB02B093BC0272
:1040B00089EA8093800089E08093810024982C987D
:1040C0003F988AB18F7C8AB96E98479A8BB180638A
:1040D0008BB9769A8FE090E00E94EB236093BD024B
:1040E0007093BE028093BF029093C00267704FEF3F
:1040F000649FB0011124759567957595679577272D
:10410000709389006093880070938B0060938A009D
:1041100070938D0060938C000E94340C90E080E0DE
:104120000E94F1238F3E9E4F11F00E94B40C82E05A
:1041300090E00E94E3238093EC020E946A0B90932C
:10414000D0028093CF0283E090E00E94E323682FA7
:1041500070E090E080E00E94390F88E091E0909359
:10416000D2028093D102EE24EA948EEFF82E93E0EF
:10417000492E21E4C22ED12CCC0EDD1EF2E0CF0E52
:10418000D11C30E1732E42E1642E58E1A52EB12CF2
:1041900060E4562E80912703853009F4A1C00E9467
:1041A000AA1EADEEB2E0E4EDF2E010E000E0302F48
:1041B00081912D91281709F4E0C090E099249394FF
:1041C0002827422F492109F4D3C061969FAF6197F8
:1041D00062963FAF6297892191E009F490E063967F
:1041E0009FAF63970E94650E8160782F65969FAFA1
:1041F0008EAF659761964FAD619762965FAD62979E
:1042000063966FAD639765968FAD65970E94E91DC4
:10421000F801E351FD4F8081982690828091E90258
:104220009091EA020E94D1069C019091E8029923A4
:1042300019F02431310578F02091E4029090E502E4
:104240001091E6020091E7022111BDC0812F89295A
:10425000802B09F0A6C10E94A9089091EB02891752
:1042600021F00E94A9088093EB02809127038430FB
:1042700009F090CF8093E9008091E80082FF8ACF17
:104280008091E80090E085FF06C00E94B503882376
:1042900009F4FDC091E08091E8008B778093E800FD
:1042A000992309F477CF198111110DC18091010370
:1042B000882309F422C11092010381E08093000356
:1042C00022961FAE229723961FAE23972496FFAE09
:1042D000249763E0CE018F5B9F4F0E948C055ACFDD
:1042E00080912703843009F11092D3020FB6F8941D
:1042F000A895A09260000FBE5092600083B7817FA6
:10430000846083BF83B7816083BF7894889583B7C7
:104310008E7F83BF0FB6F894A89580916000886166
:1043200080936000109260000FBE80912603882366
:1043300009F430CF0E947C0D90E0909307018093A8
:1043400006010E94540B0E94630BE4EDF2E011920F
:1043500022E0E23EF207D9F70E94AA1EE4EDF2E065
:10436000819181110AC142E0E23EF407C9F712CF00
:104370009F5F990C963009F024CF0F5F1F4F0E30CE
:10438000110509F014CF6696EFAE66976796EFAE0B
:10439000679768961FAE68970E94650E8160782FB8
:1043A0006A969FAF8EAF6A9766964FAD669767968F
:1043B0005FAD679768966FAD68976A968FAD6A979D
:1043C0000E94E91D2BCF9F3F19F09F5F9093E80259
:1043D000121624F40E9445068093E4028091E402C0
:1043E00087FF05C00E94450681958093E402191459
:1043F00024F40E9445068093E5028091E50287FF40
:1044000005C00E94450681958093E5023091E40243
:104410003323A1F02091E502222381F045EB340300
:10442000C0011124992359F19093E40245EB240330
:1044300090011124332339F13093E502111624F44D
:104440000E9423068093E6028091E60287FF05C062
:104450000E94230681958093E602101624F40E94A0
:1044600023068093E7028091E70287FF05C00E9440
:10447000230681958093E7020E94710EECCE81E0C5
:104480008093E402D3CF81E08093E502D7CF00E4AC
:1044900010E0CE0101964C018091E80085FD0AC034
:1044A0008091E8008B778093E8000E94B503882311
:1044B00099F3F0CE8091F100F40181934F01015006
:1044C000110951F7E7CE1130C1F422961FAE2297A1
:1044D00023961FAF23978CE0E3E1F1E0D601019032
:1044E0000D928A95E1F76096FFAE60976FE0CE017E
:1044F0008F5B9F4F0E948C054DCE809100038823D7
:10450000C1F1123041F01330F1F081E022968FAF0B
:10451000229761E0DFCE6091FB027091FC028091F6
:10452000FD029091FE020E94FB0622961FAE22978A
:1045300023961FAF239724968FAF24972596FFAE1F
:10454000259764E0C7CE8A81813041F0882341F00D
:104550008230D9F681E08093FF0202C01092FF0200
:1045600022961FAE229723964FAE23978091FF028B
:10457000E2CF2296EFAE2297CCCF79BC69BC09B4CA
:1045800000FEFDCF8091D8008F7D8093D800809170
:10459000E00082608093E0008091E00081FDFCCF2C
:1045A000F9CD9F3F09F011CF22CF1F921FB61F9266
:1045B00011248F939F93AF93BF938091D302811166
:1045C00013C08091B2029091B302A091B402B09155
:1045D000B5024196A11DB11D8093B2029093B30222
:1045E000A093B402B093B502BF91AF919F918F9108
:1045F0001F901FBE1F9018951092B9008CE08093F9
:10460000B8000895EF92FF920F931F93CF93DF931B
:10461000182FEB011092BC0084EA8093BC000E942A
:10462000650E7C018091BC0087FF27C08091B90096
:10463000887F883029F08091B900887F8031D9F552
:104640001093BB0084E88093BC000E94650E8C012F
:104650008091BC0087FF24C02091B900287F90E0A2
:1046600080E02831B1F081E090E0203411F490E056
:1046700080E09195819591090CC0CF3FDC0791F2C4
:104680000E94650E8E199F098C179D0758F28EEFB8
:104690009FEFDF91CF911F910F91FF90EF900895C1
:1046A000CF3FDC07A9F20E94650E801B910B8C178F
:1046B0009D0770F2ECCF8FEF9FEFEBCF0F931F931F
:1046C000CF93DF93EB018093BB0084E88093BC0021
:1046D0000E94650E8C018091BC0087FF11C0209163
:1046E000B900287F81E090E0283211F490E080E06A
:1046F000919581959109DF91CF911F910F91089527
:10470000CF3FDC0741F30E94650E801B910B8C1795
:104710009D0708F38EEF9FEFEECF0F931F93CF937C
:10472000DF93EC0184E88093BC000E94650E8C014D
:104730008091BC0087FF08C08091BB0090E0DF91B2
:10474000CF911F910F910895CF3FDC0789F30E940D
:10475000650E801B910B8C179D0750F38EEF9FEF1A
:10476000EECF84E98093BC000895AA1BBB1B51E1E6
:1047700007C0AA1FBB1FA617B70710F0A61BB70BD1
:10478000881F991F5A95A9F780959095BC01CD0176
:10479000089597FB072E16F4009407D077FD09D0F3
:1047A0000E94B52307FC05D03EF4909581959F4F5C
:1047B0000895709561957F4F0895EE0FFF1F059046
:1047C000F491E02D0994F999FECF92BD81BDF89A3C
:1047D000992780B50895A6E1B0E044E050E00C943C
:1047E0001D24A8E1B0E042E050E00C941D24262FE7
:1047F000F999FECF92BD81BDF89A019700B40216D7
:1048000039F01FBA20BD0FB6F894FA9AF99A0FBE84
:1048100008950396272F0E94F8230E94F723252F3F
:104820000E94F823242F0C94F8230196272F0E942E
:10483000F8230C94F723DC01CB01FC01F999FECF9E
:1048400006C0F2BDE1BDF89A319600B40D92415018
:104850005040B8F708950F931F93CF93DF938230A2
:10486000910510F482E090E0E0913303F09134037D
:1048700030E020E0B0E0A0E0309799F42115310558
:1048800009F447C0281B390B24303105C0F58A8153
:104890009B816115710571F1FB0193838283FE0198
:1048A00011C0408151810281138148175907F8F0E6
:1048B0004817590799F4109761F012960C931297C4
:1048C00013961C933296CF01DF91CF911F910F91D8
:1048D00008950093330310933403F4CF2115310569
:1048E00019F04217530718F49A01BD01EF01DF01D7
:1048F000F801C2CF9093340380933303D0CFFE01ED
:10490000E20FF31F81939193225031093983288359
:10491000DACF2091310330913203232B41F42091DF
:10492000020130910301309332032093310320912F
:104930000001309101012115310541F42DB73EB739
:104940004091040150910501241B350B4091310326
:10495000509132034217530708F0B5CF241B350B93
:104960002817390708F4AFCFBC016E5F7F4F2617B9
:10497000370708F4A8CF640F751F70933203609354
:104980003103FA01819391939ECFCF93DF930097E8
:10499000E9F0FC01329713821282C0913303D09167
:1049A0003403DE0130E020E02097A1F42081318142
:1049B000820F931F2091310330913203281739075A
:1049C00009F067C0F0933203E0933103DF91CF9198
:1049D0000895DA01AE17BF0708F040C012964D9156
:1049E0005C9113979D014115510599F7D9011396D3
:1049F000FC93EE9312974D915D91A40FB51FEA17AA
:104A0000FB0779F4808191810296840F951FD9016B
:104A100011969C938E938281938113969C938E938F
:104A20001297B0E0A0E08A819B810097B9F5FE0162
:104A300081919191E80FF91F809131039091320398
:104A40008E179F0719F6109761F510923403109294
:104A50003303D0933203C0933103B8CFB383A2831F
:104A600040815181840F951FA817B90771F44E5FDB
:104A70005F4F8D919C911197480F591F518340832F
:104A800012968D919C91938382832115310509F0B3
:104A9000ADCFF0933403E093330398CFDE01EC0104
:104AA000C2CF13961C921E921297D3CFF894FFCFC9
:104AB000F60AF60AFF0AFF0A010BFF0AFF0AFF0ABD
:104AC000F60AF60A060BFF0AFF0A060B3B0B470B1A
:104AD0004C0B450B4A0B510B4F0B77109F100B12D1
:104AE0009F100B12D210F3100B12BC11C9118E16AD
:104AF00096169C16A216A816AE16B416BA16C016AE
:104B0000C616C018C0181C191C196D198719291B45
:0A4B1000F518C9199F1AAE1AAE1A63
:104B1A0000003503200020008905EE0BC30BBD0BF6
:104B2A00AB0B01474772584D2F7062676C570000F4
:104B3A000D010D020D030D040D050D000C010C02F3
:104B4A000C030C040C050C000B010B020B030B04E9
:104B5A000B050B000A010A020A030A040A050A00E5
:104B6A0009010902090309040905090008010802E3
:104B7A0008030804080508000701070207030704D9
:104B8A0007050700060106020603060406050600D5
:104B9A0005010502050305040505050004010402D3
:104BAA0004030404040504000301030203030304C9
:104BBA0003050300020102020203020402050200C5
:104BCA0001010102010301040105010000010002C3
:104BDA0000030004000500818283E200E900EA0084
:104BEA00B500B600B700CD008301CC008A0192015E
:104BFA0094012102230224022502260227022A0204
:084C0A00B300B4006F0070005C
:00000001FF
